:020000040800F2
:10000000380900206502000865340008E72200086E
:10001000613400084305000853390008000000005F
:100020000000000000000000000000006B34000829
:100030003706000800000000693400086D3400082D
:100040007F0200087F0200087F0200087F0200088C
:100050007F0200087F0200087F0200087F0200087C
:100060007F0200087F0200087F020008490500089F
:100070007F0200087F0200087F0200087F0200085C
:100080007F0200087F0200087F0200087F0200084C
:100090007F0200087F0200087F020008390600087E
:1000A0007F0200087F0200087F0200087F0200082C
:1000B0007F0200087F0200087F0200087F0200081C
:1000C0007F0200087F0200087F0200087F0200080C
:1000D0007F0200087F0200087F0200087F020008FC
:1000E0007F0200087F0200087F0200087F020008EC
:1000F0007F0200087F0200087F0200087F020008DC
:100100007F0200087F0200087F0200087F020008CB
:100110007F0200087F0200087F0200087F020008BB
:100120007F0200087F0200087F0200087F020008AB
:100130007F02000800000000000000007F020008AD
:100140007F0200087F0200087F0200087F0200088B
:100150007F0200087F0200087F0200087F0200087B
:100160007F0200087F0200087F0200087F0200086B
:100170007F0200087F0200087F02000800000000E4
:10018000000000007F0200080000000000000000E6
:100190007F02000800000000000000007F0200084D
:1001A0000000000000000000000000007F020008C6
:1001B0007F0200087F0200087F0200087F0200081B
:1001C0007F02000800F002F800F03CF80AA090E876
:1001D000000C82448344AAF10107DA4501D100F002
:1001E00031F8AFF2090EBAE80F0013F0010F18BF93
:1001F000FB1A43F001031847704E0000904E0000B8
:10020000103A24BF78C878C1FAD8520724BF30C842
:1002100030C144BF04680C60704700000023002414
:1002200000250026103A28BF78C1FBD8520728BF06
:1002300030C148BF0B6070471FB504F0ADFE1FBD55
:1002400010B510BD00F048F91146FFF7F5FF03F0B7
:100250001FFF00F066F903B4FFF7F2FF03BC00F0E4
:1002600069F900000948804709480047FEE7FEE7B2
:10027000FEE7FEE7FEE7FEE7FEE7FEE7FEE7FEE756
:1002800004480549054A064B70470000313500080F
:10029000C501000838030020380900203805002077
:1002A0003805002053EA020C00F069802DE9F04B7C
:1002B0004FF00006002B1FBFB3FA83F503FA05F4D5
:1002C00024FA05F65E4012BF1643B2FA82F502FA2E
:1002D00005F4C5F120051EBF22FA05FC44EA0C0412
:1002E000203556EA044C4FEA144418BF641C4FF002
:1002F00000084FF00009904271EB030C39D300293C
:1003000019BFB1FA81F701FA07F6B0FA80F700FADF
:1003100007F6C7F120071EBF20FA07FC46EA0C06C5
:100320002037B6FBF4FCA7EB0507103F07F01F0BC7
:10033000CBF120060CFA0BFB2CFA06F644BFB346B1
:100340000026202FA4BF5E464FF0000B5BEA060C90
:1003500008BF4FF0010B19EB0B09ABFB027C48EB1C
:100360000608C01B06FB02CC0BFB03CC71EB0C0197
:10037000C1E70B46024641464846BDE8F08B13B53F
:100380004FF000004FF00001AFF30080BDE81C40CB
:10039000704700000FB41CB5074B06AA7B446946A2
:1003A0000090059800F063F80020694600F072F8AC
:1003B0001CBC5DF814FB0000F500000010B5431CE8
:1003C00002E010F8011B71B18107FAD14FF0013240
:1003D00002C88C1A8C4314EAC211F9D0C01A0A065A
:1003E00003D0C01E10BDC01A10BD0A0401D0801E6B
:1003F00010BD0902FCD0401E10BD4FF0000200B538
:10040000134694469646203922BFA0E80C50A0E837
:100410000C50B1F12001BFF4F7AF090728BFA0E8E5
:100420000C5048BF0CC05DF804EB890028BF40F8B1
:10043000042B08BF704748BF20F8022B11F0804FF3
:1004400018BF00F8012B704770477047704710B510
:1004500000F026F8006810BD10B5044600F020F842
:10046000046010BD01694A1C02610878704700B53C
:100470008FB0CDE901310021059105497944CDE9DD
:1004800003101146684600F00FF80FB000BD0000E1
:10049000E5FFFFFF0A6802F8010B0A6070470000E1
:1004A00000487047D80200202DE9F041064600249C
:1004B000D6E90170F5688046304603E04146B8470A
:1004C000641C3046A8470028F8D12046BDE8F081DA
:1004D00000487047D80200207546FFF7F9FFAE4686
:1004E00005006946534620F00700854618B020B540
:1004F000FFF7C6FEBDE820404FF000064FF00007B2
:100500004FF000084FF0000B21F00701AC46ACE8BB
:10051000C009ACE8C009ACE8C009ACE8C0098D4628
:10052000704710B50446AFF300802046BDE8104088
:10053000FFF791BE01491820ABBEFEE7260002007E
:10054000704700BFFEE7000010B5024800F084F8D5
:1005500010BD0000EC010020014608781038182377
:10056000B0FBF3F20848805CC865032A05D9086827
:100570006FF30900001D886503E008686FF3090048
:100580008865886D70470000A24F00080146002072
:100590008A6A8B69CBB932B1012A0DD0022A03D005
:1005A000032A10D10EE000BFCB6A03F08073B3F1D1
:1005B000807F00D1012007E0CB6AB3F1C07F00D17A
:1005C000012001E000E000BF34E08B69B3F5005F7B
:1005D0001AD132B1012A07D0022A03D0032A11D13D
:1005E0000AE000BF01200EE0CB6A03F08073B3F194
:1005F000807F00D1012006E0CB6AB3F1C07F00D13B
:10060000012000E000BF15E032B1012A05D0022A26
:1006100004D0032A0CD103E000BF00BF012008E092
:10062000CB6A03F08073B3F1807F00D1012000E03A
:1006300000BF00BF7047704710B54FF4807000F0E6
:10064000A3F901200149087010BD0000010000203D
:1006500072B600BFFEE70000F8B504460020009027
:100660008C4800684FF41651B0FBF1F7A56D2E6869
:1006700094F85C1008208840304098B120680068E9
:1006800000F0040070B12068006820F004002168C8
:10069000086094F85C1008208840A860606D40F005
:1006A0000100606594F85C1001208840304068B11A
:1006B0002068406900F0800040B194F85C1001208F
:1006C0008840A860606D40F00200606594F85C109E
:1006D00004208840304068B12068006800F00200C3
:1006E00040B194F85C1004208840A860606D40F030
:1006F0000400606594F85C1010208840304078B3A6
:100700002068006800F0080050B394F85C101020D6
:100710008840A8602068006800F4802080B12068CC
:10072000006800F4002028B9206CC8B12046216C74
:10073000884715E0A06C98B12046A16C88470FE06F
:100740002068006800F4807028B92068006820F0F4
:10075000080021680860206C10B12046216C884791
:1007600094F85C10202088403040002865D0206834
:10077000006800F0100000285FD094F85C10202082
:100780008840A86094F83500052828D120680068C2
:1007900020F01600216808602068406920F0800081
:1007A00021684861206C08B9A06C28B120680068F5
:1007B00020F008002168086094F85C103F20884011
:1007C000A860012084F8350000BF002084F83400C0
:1007D00000BF206D10B12046216D8847F8BD20680C
:1007E000006800F4802080B12068006800F40020D8
:1007F00028B9606C10B12046616C88471DE0E06B41
:10080000D8B12046E16B884717E02068006800F403
:10081000807068B92068006820F0100021680860C6
:10082000012084F8350000BF002084F8340000BFA8
:10083000E06B10B12046E16B8847606D38B3606DA6
:1008400000F00100F0B1052084F835002068006850
:1008500020F001002168086000BF0098401C009053
:10086000B84200D905E02068006800F001000028C7
:10087000F3D100BF012084F8350000BF002084F8C8
:10088000340000BFE06C10B12046E16C884700BF27
:10089000A4E70000140000202DE9F04104460025E3
:1008A00000F082F9074614B90120BDE8F081606AC2
:1008B00000B100BF022084F8350000BF002084F89A
:1008C000340000BF2068006820F001002168086043
:1008D0000AE000F069F9C01B052805D920206065F1
:1008E000032084F83500E0E72068006800F001008C
:1008F0000028EED12068056821480540D4E90101AF
:100900000843E16808432169084361690843A16914
:100910000843E1690843216A08430543606A0428E3
:1009200003D1D4E90B010843054320680560206822
:10093000456925F00705606A0543606A04280DD102
:10094000A06A0543E06A48B12046FFF71FFE28B1C0
:1009500040206065012084F83500A6E720684561E5
:100960002046FFF7F9FD064694F85C103F208840CA
:10097000B06000206065012084F83500002094E715
:100980003F8010F07047000010B50446044800682E
:10099000204020B1024804602046FFF7F3FF10BD5D
:1009A000143C0140F8B502460B4600250024002007
:1009B0000021D1E0012606FA01F51E6806EA0504C9
:1009C000AC4274D11E7906F00306012E04D01E79C4
:1009D00006F00306022E13D190684F000326BE4096
:1009E000B0434F00DE68BE4030439060506801263F
:1009F0008E40B0431E79C6F300168E4030435060DF
:100A00001E7906F00306032E09D0D0684F00032696
:100A1000BE40B0434F009E68BE403043D0601E7958
:100A200006F00306022E13D1CF0802F1200656F875
:100A300027004E07F70E0F26BE40B0434F07FF0EAC
:100A40001E69BE403043CF0802F1200646F8270059
:100A500010684F000326BE40B0431E7906F003061F
:100A60004F00BE40304310605E6806F44036002EF2
:100A700071D000BF00260096394E366846F4804695
:100A8000374F3E603E46366806F48046009600BF0B
:100A900000BF344E8F0856F827008E07370F0F26F9
:100AA000BE40B043304EB24202D100261FE052E0B9
:100AB0002E4EB24201D1012619E02D4EB24201D193
:100AC000022614E02B4EB24201D103260FE02A4E3B
:100AD000B24201D104260AE0284EB24201D10526D5
:100AE00005E0274EB24201D1062600E007268F0717
:100AF0003F0FBE4030431B4E8F0846F82700214E63
:100B00003068A0435E6806F4801606B120431D4E8F
:100B10003060361D3068A0435E6806F4001606B1EA
:100B20002043184E361D3060164E361F3068A043E5
:100B30005E6806F4003606B12043124E361F306060
:100B4000361F3068A0435E6806F4803606B1204345
:100B50000C4E083E3060491C1029FFF42BAFF8BD45
:100B600044380240083801400000024000040240BE
:100B700000080240000C0240001002400014024035
:100B800000180240083C014010B5426921EA020306
:100B900002EA010443EA0443836110BD0AB18161A2
:100BA00001E00B0483617047014800687047000052
:100BB0000800002070B504460CB9012070BD94F8FF
:100BC0003D0028B9002084F83C00204600F0EAFBF4
:100BD000242084F83D002068006820F0010021688E
:100BE00008602068006840F40040216808602068C0
:100BF000006820F400402168086000F0D9FD054637
:100C00005C496068884206D85B48854201D2012071
:100C100007E0002005E05948854201D2012000E0AC
:100C20000020012800D1C9E75548B5FBF0F620683F
:100C3000406820F03F003043216848604D496068BB
:100C4000884201D8701C07E04FF4967070434FF44F
:100C50007A71B0FBF1F0401C2168096A21F03F0174
:100C600008432168086243496068884214D8681EB6
:100C700061684900B0FBF1F0401CC0F30B00042890
:100C800001D204203DE0681E61684900B0FBF1F02C
:100C9000401CC0F30B0034E0A06838B9681E6168DE
:100CA00001EB4101B0FBF1F0401C0AE0681E6168F5
:100CB00001EBC10202EB0111B0FBF1F0401C40F46A
:100CC0008040C0F30B0008B901201AE0A06848B9C1
:100CD000681E616801EB4101B0FBF1F0401CC0F3FC
:100CE0000B000CE0681E616801EBC10202EB011110
:100CF000B0FBF1F0401CC0F30B0040F4804040F426
:100D000000402168C9694CF6FF729143084321688D
:100D1000C861D4E9070108432168096821F0C001CE
:100D2000084321680860D4E90310084321688968F2
:100D300048F2FF329143084321688860D4E90501F5
:100D400008432168C96821F0FF0108432168C86091
:100D50002068006840F001002168086000202064DD
:100D6000202084F83D000020206384F83E0000BF6E
:100D700024E70000A086010080841E0000093D00D9
:100D800040420F002DE9F84F04460F4690461E469C
:100D9000FFF70AFF05464FF0000994F83D002028B0
:100DA0007ED11923012263492046009501F0E6FB1C
:100DB00010B10220BDE8F88F00BF94F83C00012874
:100DC00001D10220F6E7012084F83C0000BF206832
:100DD000006800F0010028B92068006840F00100B8
:100DE000216808602068006820F4006021680860BD
:100DF000242084F83D00002020644F48E06200BFBA
:100E00002068006840F48070216808603346002242
:100E10004FF001112046009501F0B0FB58B1206859
:100E2000006800F48070B0F5807F02D14FF400704C
:100E300020640320BEE707F0FE0021680861FFF789
:100E4000B3FE054620684069C0F3400A2068406947
:100E5000C0F3802B10E0FFF7A7FE401BB04200D884
:100E600016B9A02084F83D0020684069C0F3400A0C
:100E700020684069C0F3802B94F83D00A02805D07D
:100E8000BAF1000F02D1BBF1000FE4D0202084F8AA
:100E90003D0020684069C0F3400028B3206800E0AE
:100EA00045E0006840F400702168086000BF002041
:100EB000009020684069009020688069009000BF21
:100EC00000BF192301221B492046009501F056FB63
:100ED00008B101206EE7202084F83D0000BF00200B
:100EE00084F83C0000BF65E72068006840F40070AB
:100EF000216808606FF4806021684861192301222D
:100F00000C492046009501F039FB08B1012051E75A
:100F100009F10109C145FFF473AF202084F83D00B9
:100F200000BF002084F83C0000BF012042E70220FF
:100F300040E70000020010000000FFFF2DE9F84329
:100F40000446894617469846089EFFF72DFE05463B
:100F500094F83D0020287DD119230122B249204672
:100F6000009501F00BFB10B10220BDE8F88300BF33
:100F700094F83C00012801D10220F6E7012084F812
:100F80003C0000BF2068006800F0010028B920681C
:100F9000006840F00100216808602068006820F4C3
:100FA000006021680860222084F83D00102084F849
:100FB0003E00002020646762A4F82A80608D2085AE
:100FC0009A48E0622B4632464946204601F0ACF989
:100FD00008B10120C9E7208D88B900BF002000902A
:100FE00020684069009020688069009000BF00BFC1
:100FF0002068006840F400702168086047E0208D98
:10100000012817D12068006820F4806021680860FA
:1010100000BF00200090206840690090206880692F
:10102000009000BF00BF2068006840F40070216895
:1010300008602CE0208D022818D12068006820F478
:101040008060216808602068006840F400602168C2
:10105000086000E0E6E000BF0020009020684069E2
:10106000009020688069009000BF10E02068006850
:1010700040F480602168086000BF00200090206874
:101080004069009020688069009000BF00BFBAE00E
:10109000208D03287ED8208D012815D12A4631467F
:1010A000204601F010FB08B101205EE720680069CE
:1010B000616A0870606A401C6062208D401E208555
:1010C000608D401E60859EE0208D02282AD1334627
:1010D000002257492046009501F050FA08B101203E
:1010E00043E72068006840F40070216808602068C9
:1010F0000069616A0870606A401C6062208D401E51
:101100002085608D401E608520680069616A0870D6
:10111000606A401C6062208D401E2085608D401EEC
:10112000608570E03346002241492046009501F079
:1011300025FA08B1012018E72068006820F48060D3
:101140002168086020680069616A0870606A401C54
:101150006062208D401E2085608D401E6085334674
:10116000002233492046009501F008FA08B1012019
:10117000FBE62068006840F4007021680860206881
:101180000069616A0870606A401C6062208D401EC0
:10119000208500E010E0608D401E608520680069B9
:1011A000616A0870606A401C6062208D401E208564
:1011B000608D401E608526E02A463146204601F0BB
:1011C00082FA08B10120D0E620680069616A0870DF
:1011D000606A401C6062208D401E2085608D401E2C
:1011E000608520684069C0F3800060B120680069B4
:1011F000616A0870606A401C6062208D401E208514
:10120000608D401E6085208D00287FF441AF202036
:1012100084F83D00002084F83E0000BF84F83C00C4
:1012200000BFA2E60220A0E6020010000000FFFFBF
:10123000040001002DE9F8430446894616461F467E
:10124000DDF82080FFF7B0FC054694F83D0020282B
:101250007ED11923012251492046009501F08EF9D3
:1012600010B10220BDE8F88300BF94F83C000128CB
:1012700001D10220F6E7012084F83C0000BF20687D
:10128000006800F0010028B92068006840F0010003
:10129000216808602068006820F400602168086008
:1012A000212084F83D00102084F83E0000202064B6
:1012B00066626785608D20853948E0622B4642462C
:1012C0004946204601F0CCF808B10120CAE700BF2A
:1012D000002000902068406900902068806900909C
:1012E00000BF00BF44E02A464146204601F02BFAE9
:1012F00050B1206C042805D12068006840F40070CB
:10130000216808600120ADE7606A00782168086103
:10131000606A401C6062608D401E6085208D401EAA
:10132000208520684069C0F3800070B1208D60B1D5
:10133000606A007821680861606A401C6062608DA4
:10134000401E6085208D401E20852A46414600E0D3
:1013500022E0204601F0E4F850B1206C042805D1C9
:101360002068006840F4007021680860012079E777
:10137000208D0028B7D12068006840F400702168F3
:101380000860202084F83D00002084F83E0000BF63
:1013900084F83C0000BF65E7022063E7020010000C
:1013A0000000FFFF10B586B00446142101A8FFF726
:1013B00024F82949206888424CD100BF00200090C1
:1013C0002648006840F0020024490860084600688A
:1013D00000F00200009000BF00BF4FF44070019089
:1013E0001220029001200390032004900420059015
:1013F00001A91B48FFF7D6FA00BF0020009017484C
:101400001030006840F4001014491031086008469C
:10141000006800F40010009000BF00BF114812499E
:1014200008604005486000210F488160C1604FF4AA
:1014300080610161002141618161C161016241629C
:10144000FFF72AFA08B1FFF703F900BF0648A063C7
:10145000846300BF06B010BD005400403038024025
:101460000004024010600240EC01002003480068C4
:1014700003490978084401490860704708000020C2
:101480001000002010B50D48006840F400700B49B2
:1014900008600846006840F48060086008460068FC
:1014A00040F480700860032000F0A6F8002000F0EF
:1014B00007F800F02BF8002010BD0000003C0240AF
:1014C00070B504460E4800784FF47A71B1FBF0F025
:1014D0000C490968B1FBF0F5284600F089FC08B119
:1014E000012070BD102C07D200222146501E00F0B2
:1014F00045F80548046001E00120F2E70020F0E72C
:1015000010000020140000200C00002008B500BFCF
:10151000002000901048006840F480400E490860A8
:101520000846006800F48040009000BF00BF00BF84
:1015300000200090081F006840F08050091F0860DC
:101540000846006800F08050009000BF00BF0720F0
:1015500000F052F808BD0000443802400146084639
:10156000002809DB00F01F0301229A4043099B0079
:1015700003F1E023C3F8002100BF70472DE9F05FBD
:1015800080460D461646002702F0FEF9074639460A
:101590002A46334601F00700C0F1070ABAF1040FEA
:1015A00002D94FF0040A01E0C0F1070AD14600F168
:1015B000040ABAF1070F02D24FF0000A01E0A0F1CD
:1015C000030AD4464FF0010A0AFA09FAAAF1010AFD
:1015D0000AEA020A0AFA0CFA4FF0010B0BFA0CFBAA
:1015E000ABF1010B0BEA030B4AEA0B042146404620
:1015F00002F0D2F9BDE8F09F00BF00F00702064BF1
:1016000019684FF6FF031940044B0B4343EA0221CC
:10161000014B196000BF70470CED00E00000FA05B7
:1016200070B504460D460CB9012070BD58480068DD
:1016300000F00F00A84209D255490D700846006815
:1016400000F00F00A84201D00120EEE7207800F062
:10165000020002281DD1207800F00400042805D1E2
:101660004C48006840F4E0504A490860207800F097
:101670000800082805D14748006840F46040454903
:1016800008604448006820F0F000A1680843414920
:101690000860207800F00100A8B36068012807D135
:1016A0003C4808380068C0F34040B8B90120BCE7A6
:1016B0006068022802D06068032807D135480838DE
:1016C0000068C0F3406048B90120AEE731480838EF
:1016D0000068C0F3400008B90120A6E72D48006863
:1016E00020F00300616808432A490860FFF75CFAAC
:1016F000064609E0FFF758FA801B41F2883188421C
:1017000002D9032091E707E02248006800F00C00AE
:101710006168B0EB810FEDD11D48006800F00F004B
:10172000A84209D91A490D700846006800F00F0058
:10173000A84201D0012078E7207800F004000428B6
:1017400007D11448006820F4E050E16808431149CB
:101750000860207800F00800082808D10D480068CB
:1017600020F46040216940EAC1000A49086000F0A5
:101770003FF808490968C1F30311074A515CC840A2
:101780000649086006480068FFF79AFE00204CE70B
:10179000003C024008380240AA4F00081400002014
:1017A0000C00002001480068704700001400002071
:1017B00000B5FFF7F7FF04490968C1F38221034A26
:1017C000515CC84000BD000008380240BA4F000814
:1017D00000B5FFF7E7FF04490968C1F34231034A46
:1017E000515CC84000BD000008380240BA4F0008F4
:1017F0002DE9F047002400250026A146A2463F48D7
:10180000006800F00C0030B1042807D0082808D088
:101810000C286BD138E0DFF8E8A06AE0DFF8E4A03C
:1018200067E03648001F006800F03F043348001F9F
:10183000006800F4800078B132483049091F096817
:10184000C1F38811A0FB01700146224600233846EF
:10185000FEF728FD05460DE029482849091F0968BB
:10186000C1F38811A0FB0171224600233846FEF720
:1018700019FD05462148001F0068C0F30140401CC7
:101880004600B5FBF6FA34E01C48001F006800F083
:101890003F041A48001F006800F4800078B119481E
:1018A0001649091F0968C1F38811A0FB01700146A0
:1018B000224600233846FEF7F5FC05460EE01048A8
:1018C0000E49091F0968C1F38811A0FB0170014688
:1018D000224600233846FEF7E5FC05460748001F70
:1018E0000068C0F30279B5FBF9FA02E0DFF810A056
:1018F00000BF00BF5046BDE8F08700000838024036
:101900000024F40000127A00F8B504460CB9012056
:10191000F8BD207800F0010000286FD0FE48006874
:1019200000F00C0004281BD0FB48006800F00C00FD
:10193000082807D1F848001F006800F48000B0F5BF
:10194000800F0DD0F448006800F00C000C2813D173
:10195000F148001F006800F48000B0F5800F0BD143
:10196000ED4808380068C0F34040002859D060684E
:10197000002856D10120CBE700BF6068B0F5803F5A
:1019800008D1E5480838006840F48030E249083959
:1019900008601EE06068B0F5A02F0DD1DE48083861
:1019A000006840F48020DC49083908600846006877
:1019B00040F4803008600CE0D7480838006820F414
:1019C0008030D549083908600846006820F4802036
:1019D000086000BF606890B1FFF7E6F8054606E0D2
:1019E000FFF7E2F8401B642801D9032090E7CA48BA
:1019F00008380068C0F340400028F1D011E0FFF73C
:101A0000D3F8054606E0FFF7CFF8401B642801D95C
:101A100003207DE7C04808380068C0F34040002834
:101A2000F1D1207800F0020002286BD1BA4800689A
:101A300000F00C00B8B1B848006800F00C000828AD
:101A400005D1B548001F006800F4800058B1B248C5
:101A5000006800F00C000C281CD1AF48001F006883
:101A600000F48000B0B9AC4808380068C0F340000A
:101A700020B1E068012801D0012049E7A6480838D4
:101A8000006820F0F800216940EAC100A249083945
:101A9000086037E0E06800B30120A0490860FFF764
:101AA00083F8054606E0FFF77FF8401B022801D9BE
:101AB00003202DE7984808380068C0F3400000284C
:101AC000F1D095480838006820F0F800216940EA14
:101AD000C10091490839086014E000208F4908606E
:101AE000FFF762F8054606E0FFF75EF8401B0228A4
:101AF00001D903200CE7884808380068C0F340008B
:101B00000028F1D1207800F0080008282CD1606965
:101B1000A8B1012082490860FFF746F8054606E0B3
:101B2000FFF742F8401B022801D90320F0E67A486B
:101B30006C300068C0F340000028F1D014E00020B1
:101B400077490860FFF730F8054606E0FFF72CF804
:101B5000401B022801D90320DAE66F486C30006888
:101B6000C0F340000028F1D1207800F004000428E0
:101B700070D1002768483830006800F0805090B974
:101B800000BF0020009064483830006840F080506A
:101B90006149383108600846006800F080500090C4
:101BA00000BF00BF01275F48006800F48070B0B933
:101BB0005C48006840F480705A490860FEF7F4FF02
:101BC000054606E0FEF7F0FF401B022801D903207E
:101BD0009EE65448006800F480700028F2D000BFF0
:101BE000A068012808D14C486830006840F0010026
:101BF0004949683108601DE0A06805280DD14648B4
:101C00006830006840F004004349683108600846C5
:101C1000006840F0010008600CE03F486830006850
:101C200020F001003C49683108600846006820F057
:101C30000400086000BFA068A8B1FEF7B5FF054624
:101C400009E0FEF7B1FF401B41F28831884202D91A
:101C500003205DE626E0304868300068C0F34000AD
:101C60000028EED013E0FEF79FFF054608E0FEF7E0
:101C70009BFF401B41F28831884201D9032047E68F
:101C8000254868300068C0F340000028EFD1012FDC
:101C900007D121483830006820F080501E49383183
:101CA000086000BFA069002851D01B48006800F000
:101CB0000C00082861D0A069022849D100201749EA
:101CC0000866FEF771FF054606E0FEF76DFF401B54
:101CD000022801D903201BE60F4808380068C0F32A
:101CE00040600028F1D1D4E907010843616A40EA65
:101CF00081110122A06AC2EB500041EA00412C2070
:101D0000005D41EA00613020005D41EA0070024957
:101D1000091F0860012007E0083802400000474220
:101D2000800E4742007000402F490866FEF73CFFD6
:101D3000054606E0FEF738FF401B022801D90320C4
:101D4000E6E52A480068C0F340600028F2D048E089
:101D5000002025490866FEF727FF054606E0FEF746
:101D600023FF401B022801D90320D1E51F4800684A
:101D7000C0F340600028F2D133E0A069012800D10F
:101D8000C6E51A48001D0668A069012827D006F498
:101D90008001E069814222D106F03F01206A814240
:101DA0001DD147F6C0703040616AB0EB811F16D17B
:101DB00006F440310122A06AC2EB5000B1EB004FA3
:101DC0000DD106F070612C20005DB1EB006F06D1E3
:101DD00006F0E0413020005DB1EB007F01D0012032
:101DE00096E5002094E500000000474200380240DC
:101DF00070B504462546681EB0F1807F01D30120EE
:101E00000FE0681E4FF0E02148610F214FF0FF30D6
:101E100001F0C2FD00204FF0E02188610720086139
:101E2000002070BD30B502460B4600BF92F83C0062
:101E3000012801D1022030BD012082F83C0000BF02
:101E4000022082F83D00106844681068816824F020
:101E500070041868044310684460184D1068A84264
:101E60001BD01068B0F1804F17D0154D1068A842F4
:101E700013D0144D1068A8420FD0134D1068A8421B
:101E80000BD0124D1068A84207D0114D1068A8421F
:101E900003D0104D1068A84205D121F08001586888
:101EA000014310688160012082F83D0000BF0020DE
:101EB00082F83C0000BF00BFBDE700000000014009
:101EC0000004004000080040000C004000040140F5
:101ED000004001400018004010B504460CB9012034
:101EE00010BD94F83D0028B9002084F83C0020463D
:101EF00000F026F8022084F83D00211D206801F042
:101F000021FB012084F8460000BF84F83E00012137
:101F10003F200155402001554120015500BF00BF21
:101F2000012084F8420043200155442001554520FA
:101F3000015500BF012084F83D000020D0E70000DB
:101F400008B50168B1F1804F0FD100BF00210091A9
:101F50000649096841F00101044A11601146096807
:101F600001F00101009100BF00BF08BD40380240F0
:101F7000014691F83D00012801D001207047022060
:101F800081F83D001A4B086898421BD00868B0F1F0
:101F9000804F17D0174B0868984213D0164B08682B
:101FA00098420FD0154B086898420BD0144B086824
:101FB000984207D0134B0868984203D0124B086828
:101FC00098420CD10868806800F00702062A0CD0FD
:101FD0000868006840F001000B68186005E00868B8
:101FE000006840F001000B6818600020C6E70000A0
:101FF000000001400004004000080040000C0040C8
:102000000004014000400140001800402DE9F0416B
:1020100004460D46002700BF94F83C00012802D179
:102020000220BDE8F081012084F83C0000BF0220BE
:1020300084F83D002068866826F0770626F47F46FF
:10204000206886602868502833D00CDC202850D0C7
:1020500004DC00284BD0102851D149E0302849D069
:1020600040284CD139E060282DD0702807D0B0F539
:10207000805F03D0B0F5005F41D10DE041E0D5E9CC
:1020800002136A68206801F0C9FA2068866846F081
:1020900077062068866034E0D5E902136A68206814
:1020A00001F0BCFA2068806840F4804021688860B4
:1020B00027E0EA686968206801F0C4FA50212068C6
:1020C00001F0B7FA1DE0EA686968206801F0CDFA0E
:1020D0006021206801F0ADFA13E0EA6869682068C1
:1020E00001F0B0FA4021206801F0A3FA09E000BF36
:1020F00000BF00BF2968206801F09BFA01E00127BA
:1021000000BF00BF012084F83D0000BF002084F81C
:102110003C0000BF384684E710B504460CB90120E6
:1021200010BDA06900B100E000BF94F83D0028B9DF
:10213000002084F83C00204600F028F8242084F891
:102140003D002068C06820F400502168C860204627
:1021500001F0A0FA2068006920F49040216808612D
:102160002068406920F02A00216848612068C06822
:1021700040F400502168C86000202064202084F8CA
:102180003D0084F83E000020CAE7000010B586B08C
:102190000446142101A8FEF730F91B492068884243
:1021A0002FD100BF002000901848006840F4003094
:1021B000164908600846006800F40030009000BF2F
:1021C00000BF00BF0020009010481038006840F0A9
:1021D00001000E49103908600846006800F001004F
:1021E000009000BF00BF0C20019002200290002050
:1021F0000390032004900720059001A90448FEF7EE
:10220000D1FB06B010BD0000004400404038024041
:10221000000002402DE9F84F04460E461746994645
:102220004FF0000A94F83D0020285AD106B117B9A2
:102230000120BDE8F88F00BF94F83C00012801D1CF
:102240000220F6E7012084F83C0000BF0020206453
:10225000212084F83D00FEF7A7FC8246A784E7848E
:10226000A068B0F5805F04D1206910B90025B046A0
:1022700002E035464FF0000800BF002084F83C0023
:1022800000BF1BE05346002280212046CDF800907D
:1022900001F016FB08B10320CBE745B9B8F8000000
:1022A000C0F308002168486008F1020803E02878BC
:1022B000216848606D1CE08C401EE084E08C0028A2
:1022C000E0D15346002240212046CDF8009001F095
:1022D000F7FA08B10320ACE7202084F83D00002085
:1022E000A7E70220A5E700BFFEE7014608684069AE
:1022F000C0F38020B0B16FF480600A6850610020A4
:102300000863202081F83D00002081F83E00086C21
:1023100040F00400086400BF002081F83C0000BFCA
:10232000012070470020FCE72DE9F84304460D46E4
:1023300090461E46E76A2068006840F48060216885
:102340000860082F04D0012F02D017F5803F06D176
:102350002068006840F480702168086008E0206B05
:10236000112805D12068006840F480702168086059
:10237000434600224FF001112046009600F0FEF87F
:1023800060B12068006800F48070B0F5807F02D1F1
:102390004FF4007020640320BDE8F8832069B0F595
:1023A000804F05D1E8B240F001002168086149E0A2
:1023B00005F44070F02141EAE010216808613346DD
:1023C00042462649204600F01CF908B10120E3E707
:1023D000E8B221680861334642462049891F2046F9
:1023E00000F00FF908B10120D6E700BF00200090EF
:1023F00020684069009020688069009000BF00BF9D
:102400002068006840F4807021680860434600221C
:102410004FF001112046009600F0B0F858B1206846
:10242000006800F48070B0F5807F02D14FF4007036
:1024300020640320B0E705F44070F12141EAE01088
:1024400021680861334642460449891F204600F04E
:10245000D8F808B101209FE700209DE7080001009F
:102460002DE9F84304460D4617469846E66A082EBD
:1024700004D0012E02D016F5803F06D120680068F6
:1024800040F480702168086008E0206B122805D1B4
:102490002068006840F48070216808603B46002294
:1024A0004FF001112046CDF8008000F067F860B1D0
:1024B0002068006800F48070B0F5807F02D14FF48E
:1024C000007020640320BDE8F8832069B0F5804FD8
:1024D00004D105F0FE002168086112E005F44070A7
:1024E000F02141EAE0102168086143463A460B4971
:1024F000204600F086F808B10120E4E7E8B2216840
:10250000086143463A460549891F204600F079F89C
:1025100008B10120D7E70020D5E70000080001003E
:1025200070B504460D46164620E02046FFF7DDFE56
:1025300008B1012070BD681CC0B1FEF735FB801BDF
:10254000A84200D895B900202063202084F83D00DF
:10255000002084F83E00206C40F02000206400BF82
:10256000002084F83C0000BF0120E3E720684069B8
:10257000C0F380000028D8D00020DBE72DE9F0412F
:1025800004460D4617461E46DDF818801CE0701CF8
:10259000D0B1FEF709FBA0EB0800B04200D89EB90D
:1025A00000202063202084F83D00002084F83E00B5
:1025B000206C40F02000206400BF002084F83C0024
:1025C00000BF0120BDE8F081C5F3074001280AD112
:1025D00020684069A9B20840A9B2884201D101200F
:1025E0000BE0002009E020688069A9B20840A9B288
:1025F000884201D1012000E00020B842C7D000206D
:10260000E0E72DE9F04104460D4616461F463DE041
:1026100020684069C0F38020E8B12068006840F479
:102620000070216808606FF48060216848610020B4
:102630002063202084F83D00002084F83E00206CB8
:1026400040F00400206400BF002084F83C0000BF7C
:102650000120BDE8F081701CC0B1FEF7A5FAC01BD7
:10266000B04200D896B900202063202084F83D00B5
:10267000002084F83E00206C40F02000206400BF61
:10268000002084F83C0000BF0120E2E7C5F30740CA
:1026900001280AD120684069A9B20840A9B288423D
:1026A00001D101200BE0002009E020688069A9B277
:1026B0000840A9B2884201D1012000E00020002892
:1026C000A6D00020C5E770B504460D46164632E098
:1026D00020684069C0F30010A0B16FF010002168BD
:1026E000486100202063202084F83D00002084F809
:1026F0003E00206C206400BF002084F83C0000BF36
:10270000012070BDFEF750FA801BA84200D895B991
:1027100000202063202084F83D00002084F83E0043
:10272000206C40F02000206400BF002084F83C00B2
:1027300000BF0120E5E720684069C0F38010002851
:10274000C6D00020DDE770B504460D46164620E0F1
:102750002046FFF7CAFD08B1012070BD681CC0B15A
:10276000FEF722FA801BA84200D895B9002020630A
:10277000202084F83D00002084F83E00206C40F0CA
:102780002000206400BF002084F83C0000BF01202E
:10279000E3E720684069C0F3C0100028D8D00020CB
:1027A000DBE710B52DED108B8EB00446B0EE409AED
:1027B000F0EE609AB0EE41AAF0EE61AAB0EE428A65
:1027C000F0EE628A94ED081BB0EE410AF0EE610A69
:1027D00053EC102B51EC1A0B02F0F4FACDE90C017A
:1027E0009DED0C0B53EC102B51EC180B02F0DEF8A6
:1027F00041EC1F0B94ED061BB0EE410AF0EE610AAE
:1028000053EC102B01F024FEC4E9060194ED101BDB
:10281000B0EE410AF0EE610A53EC102B51EC180BAC
:1028200002F0C4F8CDE9000194ED0C1BB0EE410AB2
:10283000F0EE610A53EC102B9DED001B51EC110BD7
:1028400002F0C0FACDE9020194ED0E1BB0EE410A90
:10285000F0EE610A53EC102B9DED021B51EC110BB5
:1028600002F0B0FACDE9040194ED001BB0EE410A8C
:10287000F0EE610A53EC102B9DED041B51EC110B93
:1028800001F0E6FD53EC182BCDE906019DED060B9A
:1028900051EC100B02F08AF841EC1F0B94ED0A1B6F
:1028A000B0EE410AF0EE610A53EC102B01F0D0FDBE
:1028B000C4E90A0194ED101BB0EE410AF0EE610A82
:1028C00053EC102B51EC180B02F070F841EC1F0B7D
:1028D00094ED0C1BB0EE410AF0EE610A53EC102BA4
:1028E00002F098F9C4E90C0194ED101BB0EE410A16
:1028F000F0EE610A53EC102B51EC180B02F056F875
:1029000041EC1F0B94ED0E1BB0EE410AF0EE610A94
:1029100053EC102B02F07EF9C4E90E0194ED021B7A
:10292000B0EE410AF0EE610A53EC182B51EC100B9B
:1029300002F03CF841EC1F0B94ED101BB0EE410A85
:10294000F0EE610A53EC102B01F082FD0A460146BD
:10295000C4E9101294ED042BB0EE420AF0EE620AC4
:1029600094ED0A2BB0EE421AF0EE621A53EC102BE3
:1029700051EC110B01F06CFD41EC1B0B94ED0A1BAB
:10298000B0EE410AF0EE610A53EC1B2B51EC100B38
:1029900001F012FECDE9080194ED0E1BB0EE410AE4
:1029A000F0EE610A53EC1B2B51EC100B01F004FE0E
:1029B000CDE90A0194ED061BB0EE410AF0EE610A82
:1029C00053EC102B51EC190B02F0FCF941EC1C0BF1
:1029D0009DED081BB0EE410AF0EE610A53EC1C2B92
:1029E00051EC100B01F0E2FF41EC1F0B94ED061BC4
:1029F000B0EE410AF0EE610A53EC102B01F028FD15
:102A0000C4E906019DED0A1BB0EE410AF0EE610A31
:102A100053EC1C2B51EC100B01F0C8FF41EC1F0BC9
:102A200094ED081BB0EE410AF0EE610A53EC102B56
:102A300001F00EFDC4E9080194ED0A0BB0EE40DA96
:102A4000F0EE60DA94ED0C0BB0EE40EAF0EE60EAE6
:102A50009DED081BB0EE410AF0EE610A53EC1D2B10
:102A600051EC100B01F0A2FF41EC1F0B94ED0A1B7F
:102A7000B0EE410AF0EE610A53EC102B02F0CAF8F6
:102A8000C4E90A019DED081BB0EE410AF0EE610AAF
:102A900053EC1E2B51EC100B01F088FF41EC1F0B87
:102AA00094ED0C1BB0EE410AF0EE610A53EC102BD2
:102AB00002F0B0F8C4E90C019DED0A1BB0EE410A2A
:102AC000F0EE610A53EC1D2B51EC100B01F06EFF80
:102AD00041EC1F0B94ED0E1BB0EE410AF0EE610AC3
:102AE00053EC102B02F096F8C4E90E019DED0A1B81
:102AF000B0EE410AF0EE610A53EC1E2B51EC100BC4
:102B000001F054FF41EC1F0B94ED101BB0EE410A95
:102B1000F0EE610A53EC102B02F07CF80A460146F5
:102B2000C4E9101294ED060B0EB0BDEC108B10BD75
:102B30007FB5044638208DF80C0021208DF80D005B
:102B40004FF47A7000902178022303AA1D48FEF703
:102B500071FB10B1012004B070BD00208DF8080099
:102B600020788DF809004FF47A70009021780223C4
:102B700002AA1448FEF75EFB08B10120EBE74FF410
:102B80007A7000902178012301AA0E48FEF7D6F949
:102B900008B10120DFE745F0100537208DF80C0063
:102BA0009DF804008DF80D004FF47A7000902178A4
:102BB000022303AA0348FEF73DFB08B10120CAE740
:102BC0000020C8E7980100207FB504460D4645F077
:102BD000D000207021784FF47A730A221D48FEF746
:102BE000D1F810B1022004B070BD1BA000680290A3
:102BF0004FF47A7000902178012302AA1548FEF75D
:102C000019FB08B10120EEE74FF47A7000902178AB
:102C1000012303AA0F48FEF791F908B10120E2E76A
:102C20009DF80C00682801D00320DCE76B208DF8AC
:102C3000040000208DF805004FF47A700090217890
:102C4000022301AA0348FEF7F5FA08B10120CAE7FA
:102C50000020C8E7980100207500000070B52DED38
:102C60000E8B86B00446DFA0006801904FF47A70A6
:102C700000902178012301AADB48FEF7DBFA20B19E
:102C8000012006B0BDEC0E8B70BD4FF47A70009041
:102C900021780E2302AAD448FEF750F908B101208A
:102CA000EFE79DF809009DF8081040EA012000B206
:102CB000A0819DF80B009DF80A1040EA012000B2A7
:102CC000E0819DF80D009DF80C1040EA012000B253
:102CD00020829DF80F009DF80E1040EA012005B2F9
:102CE00000EE105AB8EEC00A9FEDC01AC0EE010AFD
:102CF0009FEDBF0A30EE800A84ED140A9DF81100A2
:102D00009DF8101040EA012000B220869DF81300C3
:102D10009DF8121040EA012000B260869DF815006F
:102D20009DF8141040EA012000B2A086B4F90C000E
:102D300001F0D6FD41EC1C0B9FEDAE0B53EC102BBC
:102D400001F03AFCC4E90601B4F90E0001F0C8FD37
:102D500041EC1C0B9FEDA70B53EC102B01F02CFC4E
:102D6000C4E90801B4F9100001F0BAFD41EC1C0BF4
:102D70009FEDA20B53EC102B01F01EFCC4E90A01DD
:102D800000EE105AF8EEC00A9FED981A80EE810A04
:102D9000DFED970A30EE200A84ED140AB4F9300012
:102DA00001F09EFD41EC1C0B9FED960B53EC102B9C
:102DB00001F002FCC4E90E01B4F9320001F090FD0B
:102DC00041EC1C0B9FED8F0B53EC102B01F0F4FB2F
:102DD000C4E91001B4F9340001F082FD41EC1C0B90
:102DE0009FED880B53EC102B01F0E6FBC4E91201B8
:102DF000FDF7DAFE85490968461A304601F087FD7D
:102E000041EC1C0B9FED820B53EC102B01F0D4FB1B
:102E100041EC1B0BFDF7C8FE7C490860A18911FB42
:102E200001F1228A12FB021001F05AFD41EC1C0B49
:102E3000B0EE4C0AF0EE6C0A01F038F8B0EE40AAA1
:102E4000F0EE60AA9FED740B53EC102B51EC1A0BB3
:102E500001F00AFD20D0B4F90E0001F041FD41EC73
:102E60001E0B53EC1A2B01F0A7FB41EC1D0BB0EE2F
:102E70004D0AF0EE6D0A00F0A3FDB0EE40CAF0EE90
:102E800060CA9FED670B53EC102B51EC1C0B01F04B
:102E90008DFD41EC190B01E09FED5F9BB4F9100033
:102EA00001F01EFD41EC1D0BB4F90C10484201F07D
:102EB00017FD41EC1E0BB0EE4D1AF0EE6D1AB0EEA0
:102EC0004E0AF0EE6E0A00F0E7FEB0EE40CAF0EEF9
:102ED00060CA9FED530B53EC102B51EC1C0B01F00F
:102EE00065FD41EC180B9FED500B53EC102B51EC92
:102EF000180B01F01FFD0ED294ED181BB0EE410A25
:102F0000F0EE610A9FED4A1B53EC112B51EC100BB4
:102F100001F04AFE17D39FED460B53EC102B51ECFA
:102F2000180B01F041FE14D294ED181BB0EE410ACB
:102F3000F0EE610A9FED3C1B53EC112B51EC100B92
:102F400001F0F8FC05D23C4880ED068B84ED188B2F
:102F500012E094ED100BB0EE401AF0EE601AB0EEF5
:102F60004B2AF0EE6B2AB0EE480AF0EE680A3248BF
:102F7000FFF717FC84ED180B94ED181BB0EE410A17
:102F8000F0EE610A00F088FFB0EE40CAF0EE60CAD1
:102F90009FED270B53EC102B51EC1C0B01F004FEA2
:102FA0000BD294ED0E1BB0EE410AF0EE610A51EC2B
:102FB000100B01F041FAC4E90E0194ED100BB0EED4
:102FC000401AF0EE601AB0EE4B2AF0EE6B2AB0EE2B
:102FD000490AF0EE690A1948FFF7E3FB84ED160B86
:102FE00000204EE63B000000980100200000AA43AC
:102FF000B81E1242000000000000D0400000000097
:103000000029CC4000000000006060401800002053
:103010000000000000408F400000000000000000A1
:10302000F8C1631ADCA54C4000000000008056C0C7
:1030300000000000008056406800002020000020B2
:103040003EB504460D4611A000680190002028708E
:103050004FF47A7000902178012301AA0C48FEF702
:10306000E9F808B101203EBD4FF47A700090217854
:10307000012302AA0648FDF761FF08B10120F2E72B
:103080009DF8080028700020EDE700003A000000DD
:10309000980100207FB504460D462BA000680290E1
:1030A0004FF47A7000902178012302AA2748FEF796
:1030B000C1F810B1012004B070BD4FF47A700090D7
:1030C0002178012303AA2148FDF738FF08B1012028
:1030D000F1E79DF80C0000F0E70040EAC500C0B23F
:1030E00003901C208DF804009DF80C008DF805005D
:1030F0004FF47A7000902178022301AA1348FEF75A
:1031000099F808B10120D6E735B1012D09D0022D7B
:103110000CD0032D14D10EE09FED0D0A84ED020AB0
:103120000FE09FED0C0A84ED020A0AE09FED0A0A07
:1031300084ED020A05E09FED090A84ED020A00BF52
:1031400000BF00BF0020B6E71C000000980100206F
:103150000000803800000039000080390000003A8B
:103160007CB504460D4619208DF804008DF80550F5
:103170004FF47A7000902178022301AA0348FEF7E9
:1031800059F808B101207CBD0020FCE7980100201F
:103190007FB504460D4629A0006802904FF47A706E
:1031A00000902178012302AA2548FEF743F810B1C8
:1031B000012004B070BD4FF47A7000902178012393
:1031C00003AA1F48FDF7BAFE08B10120F1E706F097
:1031D000E70040EAC500C6B21B208DF804008DF858
:1031E00005604FF47A7000902178022301AA1448F8
:1031F000FEF720F808B10120DBE735B1012D09D039
:10320000022D0CD0032D14D10EE09FED0E0A84ED9B
:10321000010A0FE09FED0C0A84ED010A0AE09FED20
:103220000B0A84ED010A05E09FED090A84ED010A0D
:1032300000BF00BF00BF0020BBE700001B00000074
:10324000980100202D23FA3B2D237A3C90C1F93CB4
:1032500090C1793D08B500BF002000900A48006881
:1032600040F40010084908600846006800F40010A7
:10327000009000BF00BF002211460B20FEF77EF930
:103280000B20FEF76BF908BD3038024000B587B05F
:10329000142102A8FDF7B1F800BF002001903648C4
:1032A000006840F00400344908600846006800F0F7
:1032B0000400019000BF00BF00BF0020019008463D
:1032C000006840F0800008600846006800F0800058
:1032D000019000BF00BF00BF0020019008460068B9
:1032E00040F0010008600846006800F0010001900D
:1032F00000BF00BF00BF002001900846006840F0FA
:10330000020008600846006800F00200019000BF5B
:1033100000BF002220211948FDF740FC4FF4005067
:1033200002904FF4041003900020049002A9144866
:10333000FDF738FB2020029001200390002004902C
:10334000059002A90D48FDF72DFB4FF48070029007
:103350004FF4881003900020049002A90748FDF75D
:1033600021FB002211461720FEF708F91720FEF76F
:10337000F5F807B000BD0000303802400000024000
:103380000008024010B50B480B4908600B48486024
:10339000002109488160C1604FF480410161002132
:1033A00041618161C1610162FDF704FC08B1FDF773
:1033B0004FF910BD0054004098010020801A06000B
:1033C00000B587B00020039004900590069001900E
:1033D00002904FF08040134908605320486000215C
:1033E00010488160491EC160002101618161FEF7C2
:1033F00073FD08B1FDF72CF94FF48050039003A939
:103400000848FEF703FE08B1FDF722F900200190FD
:10341000029001A90348FEF705FD08B1FDF718F970
:1034200007B000BD4C02002010B50B480B490860E6
:103430004FF4E1304860002108488160C1600161BB
:103440000C21416100218161C161FEF765FE08B177
:10345000FDF7FEF810BD000000440040940200207B
:1034600000BFFEE700BFFEE77047704710B5FDF7ED
:10347000FDFF10BD00B593B0342106A8FCF7BDFFD9
:10348000142101A8FCF7B9FF00BF002000902648D6
:10349000006840F08050244908600846006800F049
:1034A0008050009000BF00BF00BF002000901F4868
:1034B000006820F4404040F480401C490860084601
:1034C000006800F44040009000BF00BF022006905A
:1034D0000120099010200A9002200C9000210D91EB
:1034E00010210E914FF4A8710F9104211091022127
:1034F0001191129106A8FEF707FA08B1FDF7A8F896
:103500000F20019002200290002003904FF4805081
:10351000049000200590022101A8FEF781F808B16F
:10352000FDF796F813B000BD40380240007000402F
:103530000348006840F470000149086070470000CB
:1035400088ED00E010B50268294B98420ED0B0F12A
:10355000804F0BD0274B984208D0274B984205D07C
:10356000264B984202D0264B984203D122F070029B
:103570004B681A431E4B984220D0B0F1804F1DD0AB
:103580001C4B98421AD01C4B984217D01B4B9842A8
:1035900014D01B4B984211D01A4B98420ED01A4BA4
:1035A00098420BD0194B984208D0194B984205D03D
:1035B000184B984202D0184B984203D122F4407223
:1035C000CB681A4322F080034C6943EA040202608C
:1035D0008B68C3620B688362054B984202D0084B2C
:1035E000984201D10B6903630123436110BD0000C0
:1035F000000001400004004000080040000C0040B2
:1036000000040140004001400044014000480140E6
:1036100000180040001C00400020004030B50C465F
:10362000816821F47F4142EA0325254329438160D3
:1036300030BD0A46816821F0700142F0070319434A
:103640008160704730B50B461446026A056A25F062
:1036500001050562816921F0F00141EA041122F0BF
:103660000A021A438161026230BD30B50B4614462E
:10367000056A25F0100505628169026A21F470412E
:1036800041EA043122F0A00242EA0312816102629F
:1036900030BD00002DE9F84F04462068006920F491
:1036A0004050E1680843216808612169A068084327
:1036B00061690843E169084300902068C06849F2E5
:1036C0000C618843009908432168C86020684069FC
:1036D00020F44070A1690843216848617649206858
:1036E000884203D075492068884203D1FEF770F8FC
:1036F000814602E0FEF75CF88146E069B0F5004FD4
:103700006CD102206168A0FB015003461920A9FB7F
:10371000007001462A463846FCF7C4FD6421B0FB20
:10372000F1F04FEA001A02206168A0FB01510B463C
:103730001920A9FB00712A463846FCF7B3FD8346E1
:1037400002206168A0FB015003461920A9FB00710B
:103750002A463846FCF7A6FD6421B0FBF1F000EBE9
:10376000C00101EB0010ABEB8000322101EBC00087
:103770006421B0FBF1F000F0F8000AEB400A0220EF
:103780006168A0FB015003461920A9FB00700146A7
:103790002A463846FCF786FD834602206168A0FB76
:1037A000015003461920A9FB00712A463846FCF750
:1037B00079FD6421B0FBF1F000EBC00101EB0010DA
:1037C000ABEB8000322101EBC0006421B0FBF1F0D3
:1037D00000F007005044216888606AE004206168B6
:1037E000A0FB015003461920A9FB007001462A46A0
:1037F0003846FCF757FD824604206168A0FB015063
:1038000003461920A9FB007001462A463846FCF7FA
:1038100049FD6421B0FBF1F000EBC00101EB0010A9
:10382000AAEB8000322101EB00106421B0FBF1F023
:1038300000F0F00A04206168A0FB01700346192023
:10384000A9FB00513A462846FCF72CFD6421B0FB49
:10385000F1F00AEB001A04206168A0FB01510B464D
:103860001920A9FB00712A463846FCF71BFD834648
:1038700004206168A0FB015003461920A9FB0070D9
:1038800001462A463846FCF70DFD6421B0FBF1F0F5
:1038900000EBC00101EB0010ABEB8000322101EB2B
:1038A00000106421B0FBF1F000F00F0050442168DB
:1038B0008860BDE8F88F000000100140001401404E
:1038C0002DE9F04104460D4617469846069E34E021
:1038D000701C88B32EB1FDF767F9A0EB0800B04269
:1038E0002BD900BF00BF21680C3151E8001F21F423
:1038F000D07021680C3141E80002002AF3D100BFEA
:1039000000BF00BF2168143151E8001F21F0010001
:103910002168143141E80002002AF3D100BF2020C1
:1039200084F83D0084F83E0000BF002084F83C008D
:1039300000BF0320BDE8F081FFE720680068284051
:10394000A84201D1012000E00020B842C0D00020F0
:10395000F0E700BFFEE703B401984100009850EA89
:10396000C12018BF04204A0D18BF40F0010040F2EA
:10397000FF72B2EB515F08BF40F00200012808BFA0
:10398000052002B07047000002480068C0F3022022
:10399000704700000CED00E010B5002804DB0A07BA
:1039A000130E054A135406E00A07140E034A00F0EA
:1039B0000F031B1FD45410BD00E400E018ED00E01D
:1039C00070B59B482DED020B2DED068B079D25F064
:1039D0000044A04218DC9748844202DC0AD10698D1
:1039E00040B19DED060BBDEC068B02B0BDE870400A
:1039F00000F015BB002DCCBF9FED8F0B9FED900B02
:103A0000BDEC068B02B070BD8F48A04215DD8F481B
:103A1000A042D8BF4FF0FF3458DD9DED060B51ECAE
:103A2000100BFFF798FF042808BF00F00DFB9DED79
:103A3000060BBDEC068B02B070BD9DED060B51EC84
:103A4000100B00F019FBCDE9060181489FED828B38
:103A5000A0423CDD8248A0421FDD00249FED82ABE6
:103A60009DED060B53EC1A2B51EC100B00F0F0FC03
:103A70009DED060B41EC190B53EC1A2B51EC100B7E
:103A800000F094FF53EC182B01F09CF953EC192B28
:103A900000F092FDCDE9060149E09DED060B012401
:103AA00053EC182B51EC100B00F0D2FC9DED060BE3
:103AB00041EC190B53EC182B51EC100B01F082F96F
:103AC00053EC192B00F078FDCDE906012FE0684892
:103AD000A0421FDD02249FED689B9DED060B53EC79
:103AE000192B51EC100B00F061FF53EC182B00F078
:103AF000AFFC9DED060B41EC180B53EC192B51EC70
:103B0000100B01F05FF953EC182B00F055FDCDE9D7
:103B100006010CE09DED060B032453EC102B9FEDEA
:103B2000580B51EC100B00F047FDCDE906019DED5F
:103B3000060B53EC102B51EC100B00F037FF41EC4F
:103B4000180B53EC182B00F031FF41EC190B4E48C9
:103B50000621B0EE490AF0EE690A784400F0E3F974
:103B600053EC182B51EC100B00F020FF41EC180B1C
:103B70004648B0EE490AF0EE690A0521784400F0A3
:103B8000D2F953EC192B51EC100B00F00FFF41EC64
:103B9000100B51EC180B53EC102B002C0EDA00F02C
:103BA00057FC9DED061B53EC112B00F0FFFE9DED25
:103BB000061B53EC112B01F02DF835E000F048FC0A
:103BC0009DED061B53EC112B00F0F0FE41EC100BA9
:103BD0002F48784400EBC40090ED001B51EC100B13
:103BE00053EC112B01F0EEF89DED061B53EC112B5D
:103BF00001F0E8F841EC100B2648784400EBC400D3
:103C000090ED001B51EC100B53EC112B01F002F85E
:103C100041EC100B002DA2BFBDEC068B02B070BDB5
:103C200051EC100B00F008FC41EC100B01E7000018
:103C3000000010440000F07F182D4454FB21F93F90
:103C4000182D4454FB21F9BF0000DC3F0000203E4A
:103C50000000F33F00000000000000000000F03F03
:103C60000000E63F000000000000000000000040EF
:103C70000080034000000000000000000000F83F4A
:103C8000000000000000F0BFD21400008814000003
:103C900012140000CA13000070B56F4E2DED040B16
:103CA0002DED048B82B0DDF824C0DDE907235C42F2
:103CB0002CF000411C4341EAD474069D22F00040E0
:103CC000B44205D86C422C4340EAD474B4420BD9B8
:103CD0009DED081B9DED060B02B0BDEC048B04B0FE
:103CE000BDE8704000F0A5B9ACF14054A4F17F6488
:103CF0001C430BD0022404EAAC7444EAD27405439A
:103D00009FED578B9FED582B07D015E09DED060BCF
:103D100051EC100B00F0A8F942E0002C11BF012C6F
:103D20009DED060B02B0BDEC048B04BF04B070BD6A
:103D3000022C38D0032C3BD00B439FED4D1B9FED45
:103D40004E0B0AD0B14218D1B04209D121F08041C6
:103D500020F08040099107900FE0002A15DA10E06A
:103D6000474B7B44002C08BF93ED000B0DD0012C7A
:103D700010D0022C17D0032C1AD0B0421DD1002A2B
:103D800003DAB0EE410AF0EE610A02B0BDEC048B3A
:103D900004B070BD93ED000B51EC100B00F04CFB28
:103DA00041EC100BF1E7B0EE480AF0EE680AECE7E0
:103DB000B0EE420AF0EE620AE7E7401A00159FED06
:103DC000329B3C28C8BF8DED000B17DCBCF1000F07
:103DD000BCBF10F13C0F8DED009B0FDB9DED080B80
:103DE00053EC102B9DED060B51EC100B00F0E4FB97
:103DF00000F042F900F038F9CDE90001B4B1012C2E
:103E000010D0022C9FED220B53EC102B9DED000BDC
:103E100051EC100B19D000F0D5FF53EC182B00F02B
:103E2000D1FFBDE7019880F0004001909DED000BAF
:103E300053EC192B51EC100B00F016FD04BF0220BF
:103E4000FCF70AFB9DED000B9FE700F0BBFF53EC76
:103E5000182B00F0DFFEA3E70000F07F0000000059
:103E6000182D4454FB210940182D4454FB2109C04E
:103E7000182D4454FB21F9BF182D4454FB21F93F60
:103E8000FA12000000000000000000000000000026
:103E9000075C143326A6A13C2DED020B019820F0FF
:103EA000004001909DED000B02B0704700B52DED74
:103EB000048BB0EE409AF0EE609A83B051EC190B8F
:103EC00000F0B4FE41EC180B18EE100A18EE901A30
:103ED0008DED008B002818BF0120084320F0004022
:103EE000C0F17F6000F1E040C00F14D019EE101A4D
:103EF00019EE900A8DED009B002918BF012108439F
:103F000020F00040C0F17F6000F1E040C00F04BF2E
:103F10000120FCF7A1FAB0EE480A03B0F0EE680AFF
:103F2000BDEC048B00BD70B504462DED028B4D1E1B
:103F300000EBC500B0EE408AF0EE608A90ED000B19
:103F400035F0060017D053EC182B51EC100B00F095
:103F50002DFD41EC100B6D1E04EBC50090ED001B18
:103F600051EC100B53EC112B00F072FA41EC100BDA
:103F700035F00600E7D1022D36D0042D1CD0062DD9
:103F80001CBFBDEC028B70BD53EC182B51EC100B19
:103F900000F00CFD94ED0A1B53EC112B00F058FAC5
:103FA00053EC182B00F002FD94ED081B53EC112B81
:103FB00000F04EFA41EC100B53EC182B51EC100BA7
:103FC00000F0F4FC94ED061B53EC112B00F040FACA
:103FD00053EC182B00F0EAFC94ED040B53EC102B7F
:103FE00000F036FA41EC100B53EC182B51EC100B8F
:103FF00000F0DCFC94ED021B53EC112B00F028FACE
:1040000053EC182B00F0D2FC94ED001B53EC112B59
:1040100000F01EFABDEC028B41EC100B70BD10B528
:1040200053EC102B51EC100B00F012FA41EC100B7A
:1040300010BD10B553EC112B51EC100B00F008FA29
:1040400041EC100B10BD00009FED050B10B553ECBB
:10405000102B51EC100B00F0A9FC41EC100B10BD23
:10406000000000000000001010B541EC100BFFF73D
:10407000A7FC51EC100B10BD82B0CDE9000121F07E
:10408000004001909DED000B02B051EC100B704709
:10409000FDF7F8F9FFF7EEF9FFF7F8F8FFF7DAF8B0
:1040A000FFF770F9FFF7C0F9FFF78AF900216648BA
:1040B000FEF78AFD70B965A16D48FCF76BF96C4895
:1040C000FCF77CF984B26423224669496948FEF70B
:1040D000A1F80DE068A16648FCF75CF96448FCF7BC
:1040E0006DF984B26423224661496248FEF792F872
:1040F0004F215548FFF734F870B968A15C48FCF7C8
:1041000049F95B48FCF75AF984B2642322465849BE
:104110005848FEF77FF80DE06BA15548FCF73AF9D7
:104120005348FCF74BF984B2642322465049514866
:10413000FEF770F802214448FEF7ACFF70B96DA19C
:104140004B48FCF727F94A48FCF738F984B2642356
:10415000224647494748FEF75DF80DE072A1444802
:10416000FCF718F94248FCF729F984B26423224687
:104170003F494048FEF74EF800213348FFF708F862
:1041800070B976A13A48FCF705F93948FCF716F9F9
:1041900084B26423224636493648FEF73BF80DE0E8
:1041A0007AA13348FCF7F6F83148FCF707F984B2F6
:1041B000642322462E492F48FEF72CF82248FEF7AA
:1041C000B7FC70B97DA12A48FCF7E4F82848FCF751
:1041D000F5F884B26423224625492648FEF71AF8EA
:1041E0000DE083A12248FCF7D5F82148FCF7E6F85A
:1041F00084B2642322461E491E48FEF70BF8894804
:10420000FDF7B6FE1FE08848007801281BD100208A
:104210008549087020218548FCF7B6FC00208149BB
:104220000968486282490848FEF70AFF804800781A
:1042300000F0010010B10448FEF710FD7948006855
:10424000406A7C490880DEE7300100204D50553639
:104250003035303A20457869746F206E6120696E80
:10426000696369616C697A6163616F0A0D000000BE
:10427000B0000020940200204D5055363035303AC1
:104280002046616C6861206E6120696E69636961B6
:104290006C697A6163616F0A0D0000004D505536FC
:1042A0003035303A20457869746F206E6120636F35
:1042B0006E66696775726163616F20646F207261F9
:1042C00074650A0D000000004D5055363035303A07
:1042D0002046616C6861206E6120636F6E6669675D
:1042E00075726163616F20646F20726174650A0D7D
:1042F000000000004D5055363035303A2045786981
:10430000746F206E6120636F6E666967757261639A
:10431000616F20646F206163656C65726F6D657499
:10432000726F0A0D000000004D5055363035303A9E
:104330002046616C6861206E6120636F6E666967FC
:1043400075726163616F20646F206163656C657273
:104350006F6D6574726F0A0D000000004D50553688
:104360003035303A20457869746F206E6120636F74
:104370006E66696775726163616F20646F2067693B
:10438000726F73636F70696F0A0D00004D50553680
:104390003035303A2046616C6861206E6120636F71
:1043A0006E66696775726163616F20646F2067690B
:1043B000726F73636F70696F0A0D00004D50553650
:1043C0003035303A20457869746F206E6120636F14
:1043D0006E66696775726163616F206461732069DD
:1043E0006E746572727570636F65730A0D000000FC
:1043F0004D5055363035303A2046616C6861206E3C
:104400006120636F6E66696775726163616F2064B6
:10441000617320696E746572727570636F65730A7B
:104420000D0000004C0200200100002000000240AE
:10443000000000200200002081F00041704780F061
:104440000040704721F00041704720F00040704765
:1044500010B591EA030F48BF83F0004300F1BA841E
:10446000841A71EB030C05D2121943EB0C03001BE9
:1044700061EB0C01DFF824E14FEA1154A4EB135C6B
:104480001EEA430F18BF9EEA445F73D023EA0E036F
:10449000DCF1200E21EA045143F4801332D322FAD6
:1044A0000CFE10EB0E0023FA0CFE41EB0E01CCF1DA
:1044B000200E03FA0EFE10EB0E0051F10001B1F5D3
:1044C000801FCCF1200E32D201EB045112FA0EF211
:1044D000BDE8104058BF7047401C38BF5FEA420239
:1044E00018BF7047002814BF20F0010041F10001FF
:1044F0004FEA410313F5001F38BF7047A1F1C041D7
:1045000000F04CBB012A43EB0302ACF1200CDCF1C0
:104510001F0E32BF4FF0000E23FA0CF310EB030016
:1045200041EB0451B4EB115FD0D0A1EB045101F584
:10453000801149085FEA300001EB04510ED350F1BD
:10454000000038BF12FA0EFE08D1BDE81040C9E7DE
:10455000401C38BF5FEA4202CAD1C3E7BDE8104041
:104560004FEA410313F5001F38BF7047A1F1C04166
:1045700000F014BB9EEA445F08D011EA5E0FBDE86C
:10458000104004BF01F0004100207047BDE810401A
:1045900070B500F0B5FA00BF64FBBE3E0000E0FF5E
:1045A000491058BFC1F140415B1058BFC3F14043AF
:1045B0008B42EFF3008070472DE9C04130B4DFF843
:1045C000A0C23CEA111418BF3CEA131400F0EC80BE
:1045D00081EA03051CEA111444EAD57418BF1CEAE9
:1045E000131500F0C780A4EB05044FF0004545EA21
:1045F000C12145EAC32341EA505143EA525304F131
:104600007F74994204F500344FEAC0204FEAC22279
:1046100008BF904200F09C804FEA13650FF24016ED
:10462000765D4FEA134506FB05F7C7F1807706FB79
:1046300007F74FEAD737A7FB03687642C8F58038FB
:10464000A7FB06CE38BFA8F1010807FB08E64FF02C
:10465000000EA6FB028CE6FB03CEDCF1000CCEF1D3
:10466000004E38BFAEF1010EA6FB0C584FF000070C
:104670004FF00005E6FB0E87A1FB08C6A0FB07CEA6
:1046800016EB0E0645F10005E1FB076515F1E04E5E
:104690007EBFA4F580345FEA46066D4116F18007BF
:1046A00045F100054FEA17274FEA066647EA056716
:1046B000A6F1DE46B6F1805F4FEA15251FD93846D0
:1046C00024F0010C05EBC471BCF1FE6F01EB0C1181
:1046D00002D8F0BCBDE8008124425CBF01F5801E19
:1046E0009EEAC47F02D4F0BCBDE80081244238D4E5
:1046F000F0BCA1F1C041BDE8004100F04FBA4FEA63
:10470000D22242EA43524FEAD323A7FB02864FEA62
:10471000D02040EA415007FB03661EEA0E0F4FEA25
:10472000D12105FB026658BFA6EB0056B6EB00563A
:104730004FEA520E4EEAC37E18EB0E0E56EB530EA6
:10474000BDD518EB02085E417F1C55F10005B6E7A8
:104750004FF480154FF000074FF000064FF00008AF
:10476000ADE7F0BC4FF0000001F1C04101F00041A5
:10477000BDE8008111EA0C1F0CEA131500D00CE013
:1047800013EA0C1F00F025804FF00000F0BC81EA16
:10479000030101F00041BDE80081F0BCBDE800412B
:1047A00081EA030100F0FAB9F0BCBDE8004170B540
:1047B00000F0A6F9097EFC3E00F007B881EA03018B
:1047C0004FF0000001F00041704781EA030100F062
:1047D000E5B9F0BCBDE800414FF000002149704749
:1047E000FFFDFBF9F7F5F4F2F0EEEDEBE9E8E6E4B6
:1047F000E3E1E0DEDDDBDAD8D7D5D4D3D1D0CFCD3D
:10480000CCCBCAC8C7C6C5C4C2C1C0BFBEBDBCBB75
:10481000BAB9B8B7B6B5B4B3B2B1B0AFAEADACAB70
:10482000AAA9A8A8A7A6A5A4A3A3A2A1A09F9F9E4A
:104830009D9C9C9B9A9999989797969595949393FC
:10484000929191908F8F8E8E8D8C8C8B8B8A898993
:104850008888878786858584848383828281818016
:104860000000FF070000F87F51EA030C17D41CF585
:10487000801F58BFBCF5801F00F10680994218BF09
:10488000704708BF9042704707D711F5801F58BF87
:1048900013F5801F19D499427047894270471CF55F
:1048A000801F08D5BCF5801FF7D58B4218BF704715
:1048B00008BF824270474FF4001C1CEB410F38BF09
:1048C0001CEB430F01D28B42704770B500F018F912
:1048D000922449004FF000514FF08053FFF760BE23
:1048E00010F0004248BF4042B0FA80F310FA03F1E2
:1048F0000AD0C3F11D0303F580634FEA415002EB78
:10490000035202EBD12170474FF000007047B0FA1C
:1049100080F310FA03F10AD0C3F11D0303F580639D
:104920004FEA41504FEA035202EBD12170474FF05A
:104930000000704751EA030C17D41CF5801F58BFC4
:10494000BCF5801F00F10680994218BF704708BF70
:104950009042704707D711F5801F58BF13F5801F8D
:1049600019D499427047894270471CF5801F08D5B9
:10497000BCF5801FF7D58B4218BF704708BF824235
:1049800070474FF4001C1CEB410F38BF1CEB430F6A
:1049900001D28B42704770B500F0B2F89224490002
:1049A0004FF000514FF08053FFF7FABDDFF848C1D8
:1049B00070B51CEA111E1EBF1CEA13159EEA0C0FEF
:1049C00095EA0C0F00F06F8081EA030423EA4C1390
:1049D0004EEAD47E21EA4C1141F4801143F4801355
:1049E000AE44A1FB024CA0FB0365AEF17F7E3619FD
:1049F00055EB0C05A1FB034C4CF10003A0FB021C82
:104A000016EB0C06654153F10003094218BF46F04E
:104A1000010613F4007F0BD14FEA03314FEA053052
:104A2000340341EA155140EA16506FF003020AE0E0
:104A30004FEAC3214FEAC520F40241EA555140EA4A
:104A400056506FF0020202EB2E4201EB025585EA4E
:104A5000CE710AD05FEA440C18BF24F0004450F134
:104A6000000041F1000120EAD47040F2FE7C624572
:104A700000D270BDA84214BF4FF080444FF04044B4
:104A8000002E08BF0024BEF1806FA8BFA1F1C04175
:104A9000BDE8704080F282804FF0000001F1C0411B
:104AA00001F0004170479EEA0C0F0CEA131518BF85
:104AB00095EA0C0F06D04FF0000081EA030E0EF0CD
:104AC000004170BD00F01CF88900013E00F007B8FD
:104AD00000F009B84FEA430C5FEA5C5C08D081EA59
:104AE000030100F05BB84FEA410C5FEA5C5CF6D171
:104AF0004FF00000014970470000FF070000F87FF9
:104B00000EF1020E2EF0030E5EF8046B364205D451
:104B1000012A43EB030515F5001F12D8012841EBCC
:104B2000010C1CF5001F0CD80ED14FEAD17C15F5F5
:104B3000001F0CEB4C0C0CF1020C08BF4CEBD37CAF
:104B400004E04FF0080C01E04FEAD37C0CEB4C057D
:104B500026FA05F606F00706B6F1040C06D20EEBAF
:104B6000860CBDE870404CF0010C6047DFE80CF0AB
:104B7000090B02024FF000414FF00000A1F50021A7
:104B800070BD19461046012851EB010418BFD4F539
:104B9000001484BF002001F0004170BD0808A0F59A
:104BA00000114FEA3101704753EA010C17D41CF58C
:104BB000801F58BFBCF5801F00F106808B4218BFD4
:104BC000704708BF8242704707D713F5801F58BF50
:104BD00011F5801F19D48B4270479B4270471CF51A
:104BE000801F08D5BCF5801FF7D5994218BF7047C4
:104BF00008BF904270474FF4001C1CEB430F38BFB6
:104C00001CEB410F01D2994270470FB40CBC03BC9E
:104C1000FFF7C1BE91EA030F10B581F000413FF5E7
:104C20001FAC83F0004300F0D5B800002DE9F0413F
:104C300001F5801CBCF5001FC0F2A9804FEA115C91
:104C400021EA0C510CF1FD0C41F480115FEA5C0C7F
:104C50000CF5C07C01D34000494130A4890241EAEF
:104C6000905187028E0E0A0CA45D04FB04F602FB31
:104C700006F6C6F14046A4FB0662F60D46EA422659
:104C800006FB06F4A4FB01235242C3F1404338BFA4
:104C90005B1EA6FB02420024E6FB0324D20B42EA81
:104CA0004446A6FB0623A1FB02E2A3FB07E4E3FBC9
:104CB00061426442C2F1404E38BFAEF1010EA6FB24
:104CC00004234FF00002E6FB0E32A2FB0346340041
:104CD000E2FB6264A1FB06E6A4FB07E8E4FB616873
:104CE0007642C8F1405838BFA8F10108A2FB06E49B
:104CF000A3FB08E5E2FB6854A1FB05E6A7FB04E87B
:104D0000E1FB648618F1200556F10006A809A8F118
:104D10001B08B10908F03F08B8F10A0F40EA8660A5
:104D20001CD901EB0C51BDE8F08100BFFCF5EEE8A9
:104D3000E2DDD8D3CFCBC7C3C0BDB9B6B4B1AEAC3A
:104D4000A9A7A5A3A19F9D9B9A9896959392908FB2
:104D50008D8C8B898887868584838281A0FB0068FF
:104D600000FB01F208EB4208B8EB872807D534189E
:104D700058EB0104D5D5401C51F10001D1E7341A9C
:104D800078EB0104CDD4401E71F10001C9E75FEA60
:104D90004C0C5FEA9C5C0DD105D34FF0000001F094
:104DA0000041BDE8F081BDE8F04170B5FFF7A8FE15
:104DB0006DDBFFBEBDE8F0414FF0000000497047D9
:104DC0000000F87F10B591EA030F48BF83F000435D
:104DD0003FF546AB841A71EB030C07D212198CF025
:104DE000004C43EB0C03001B61EB0C01DFF8A4E16A
:104DF0004FEA1154A4EB135C1EEA430F18BF9EEA5E
:104E0000445F00F0B08023EA6E03524221EA04516D
:104E1000C3EB6E0338BF5B1EDCF1200E25D322FAF4
:104E20000CFE10EB0E0043FA0CFE41EB0E01CCF130
:104E3000200E03FA0EFE10EB0E0051F10001CCF132
:104E4000200E29D412FA0EF201EB0451BDE81040F5
:104E500058BF7047401C1CBFB2F1004F704700287C
:104E60000CBF491C20F00100704712EB020E43EB0F
:104E7000030218BF4FF0010E4EEA4202ACF1200CC3
:104E8000DCF11E0E54D943FA0CFE10EB0E0051F16A
:104E9000FF31CCF11E0ED5D50EF1010E12FA0EFE29
:104EA000404141EB010101EB445C5FEA5C5C10D9DD
:104EB00010EBDE7001EB045138BFBEF1004FBDE8CE
:104EC000104018BF704700280CBF491C20F001009B
:104ED000704730D24FEAD42C11F5001124F400644D
:104EE0001BD0B1FA81F20B3AA41AA41ED2F120030E
:104EF000914030FA03F31943904001EBCC71002C40
:104F000001EB0451BDE81040A8BF704701F1C0415A
:104F10004FF0000001F000417047B0FA80F310FA42
:104F200003F100D110BDE41A173C4805C90AE4E7B3
:104F300001EB045110BD491001EB0451BDE81040D4
:104F40004FEA300002E04FF0000170474A0008BF0E
:104F50000042F8D0B2F5001F28BF704701F00041B1
:104F60004FF0000070479EEA445F07D011EA5E0FE1
:104F7000BDE8104004BF002100207047BDE810408C
:104F800070B5FFF7BDFD00BF40DFF63E83F0004186
:104F9000104670470000E0FF4FF04070E1EE100A4D
:104FA00070470006101600061016000000000000F2
:104FB00000000102030406070809000000000102C6
:104FC00003040000000000004FBB610567ACDD3F3B
:104FD000182D4454FB21E93F9BF681D20B73EF3F20
:104FE000182D4454FB21F93FE2652F227F2B7A3C98
:104FF000075C143326A6813CBDCBF07A8807703C51
:10500000075C143326A6913CC4EB98999999C9BFC3
:10501000711623FEC671BCBF6D9A74AFF2B0B3BFF8
:105020009AFDDE522DDEADBF2F6C6A2C44B4A2BFB8
:105030000D5555555555D53FFF8300922449C23F24
:105040006E204CC5CD45B73F513DD0A0660DB13F58
:10505000EB0D76244B7BA93F11DA22E33AAD903F6A
:105060000000000000000000885000080000002040
:10507000B00000000002000838510008B000002015
:10508000880800001C02000800000000000000006A
:105090000000000010000000010000000024F400E7
:1050A0000000000000000000000000E04D62503FE2
:1050B000000000C07493683F000000E051B89E3FBC
:1050C00000000000000000000000000000000000E0
:1050D00000000000000000000000000000000000D0
:1050E00000000000000000000000000000000000C0
:1050F000000000E04D62503F000000C07493683F24
:10510000000000E051B89E3F0000000000000000D9
:10511000000000000000000000000000000000008F
:10512000000000000000000000000000000000007F
:08513000000000000000000077
:04000005080001C529
:00000001FF
