:020000040800F2
:100000005808002065020008252D0008CB220008B2
:10001000212D000827050008133200080000000009
:100020000000000000000000000000002B2D000870
:100030001B06000800000000292D00082D2D0008D7
:100040007F0200087F0200087F0200087F0200088C
:100050007F0200087F0200087F0200087F0200087C
:100060007F0200087F0200087F0200082D050008BB
:100070007F0200087F0200087F0200087F0200085C
:100080007F0200087F0200087F0200087F0200084C
:100090007F0200087F0200087F0200081D0600089A
:1000A0007F0200087F0200087F0200087F0200082C
:1000B0007F0200087F0200087F0200087F0200081C
:1000C0007F0200087F0200087F0200087F0200080C
:1000D0007F0200087F0200087F0200087F020008FC
:1000E0007F0200087F0200087F0200087F020008EC
:1000F0007F0200087F0200087F0200087F020008DC
:100100007F0200087F0200087F0200087F020008CB
:100110007F0200087F0200087F0200087F020008BB
:100120007F0200087F0200087F0200087F020008AB
:100130007F02000800000000000000007F020008AD
:100140007F0200087F0200087F0200087F0200088B
:100150007F0200087F0200087F0200087F0200087B
:100160007F0200087F0200087F0200087F0200086B
:100170007F0200087F0200087F02000800000000E4
:10018000000000007F0200080000000000000000E6
:100190007F02000800000000000000007F0200084D
:1001A0000000000000000000000000007F020008C6
:1001B0007F0200087F0200087F0200087F0200081B
:1001C0007F02000800F002F800F03CF80AA090E876
:1001D000000C82448344AAF10107DA4501D100F002
:1001E00031F8AFF2090EBAE80F0013F0010F18BF93
:1001F000FB1A43F001031847243300004433000086
:10020000103A24BF78C878C1FAD8520724BF30C842
:1002100030C144BF04680C60704700000023002414
:1002200000250026103A28BF78C1FBD8520728BF06
:1002300030C148BF0B6070471FB503F059F91FBDAF
:1002400010B510BD00F035F91146FFF7F5FF02F0CB
:10025000FFFF00F053F903B4FFF7F2FF03BC00F017
:100260005BF900000948804709480047FEE7FEE7C0
:10027000FEE7FEE7FEE7FEE7FEE7FEE7FEE7FEE756
:1002800004480549054A064B70470000F12D000857
:10029000C50100085802002058080020580400201A
:1002A0005804002053EA020C00F069802DE9F04B5D
:1002B0004FF00006002B1FBFB3FA83F503FA05F4D5
:1002C00024FA05F65E4012BF1643B2FA82F502FA2E
:1002D00005F4C5F120051EBF22FA05FC44EA0C0412
:1002E000203556EA044C4FEA144418BF641C4FF002
:1002F00000084FF00009904271EB030C39D300293C
:1003000019BFB1FA81F701FA07F6B0FA80F700FADF
:1003100007F6C7F120071EBF20FA07FC46EA0C06C5
:100320002037B6FBF4FCA7EB0507103F07F01F0BC7
:10033000CBF120060CFA0BFB2CFA06F644BFB346B1
:100340000026202FA4BF5E464FF0000B5BEA060C90
:1003500008BF4FF0010B19EB0B09ABFB027C48EB1C
:100360000608C01B06FB02CC0BFB03CC71EB0C0197
:10037000C1E70B46024641464846BDE8F08B13B53F
:100380004FF000004FF00001AFF30080BDE81C40CB
:10039000704700000FB41CB5074B06AA7B446946A2
:1003A0000090059800F059F80020694600F068F8C0
:1003B0001CBC5DF814FB0000E100000010B5431CFC
:1003C00002E010F8011B71B18107FAD14FF0013240
:1003D00002C88C1A8C4314EAC211F9D0C01A0A065A
:1003E00003D0C01E10BDC01A10BD0A0401D0801E6B
:1003F00010BD0902FCD0401E10BD4FF0000200B538
:10040000134694469646203922BFA0E80C50A0E837
:100410000C50B1F12001BFF4F7AF090728BFA0E8E5
:100420000C5048BF0CC05DF804EB890028BF40F8B1
:10043000042B08BF704748BF20F8022B11F0804FF3
:1004400018BF00F8012B70477047704770470000D5
:1004500001694A1C02610878704700B58FB0CDE988
:1004600001310021059105497944CDE90310114678
:10047000684600F00AF80FB000BD0000E5FFFFFF7E
:100480000A6802F8010B0A6070472DE9F041064640
:100490000024D6E90170F5688046304603E0414605
:1004A000B847641C3046A8470028F8D12046BDE86C
:1004B000F081754600F02CF8AE46050069465346BB
:1004C00020F00700854618B020B5FFF7D9FEBDE83B
:1004D00020404FF000064FF000074FF000084FF0AB
:1004E000000B21F00701AC46ACE8C009ACE8C0093C
:1004F000ACE8C009ACE8C0098D46704710B50446A9
:10050000AFF300802046BDE81040FFF7A4BE000016
:1005100000487047F401002001491820ABBEFEE7F7
:1005200026000200704700BFFEE7000010B5024839
:1005300000F084F810BD0000080100200146087892
:1005400010381823B0FBF3F20848805CC865032A12
:1005500005D908686FF30900001D886503E0086885
:100560006FF309008865886D70470000FA34000851
:10057000014600208A6A8B69CBB932B1012A0DD0BD
:10058000022A03D0032A10D10EE000BFCB6A03F089
:100590008073B3F1807F00D1012007E0CB6AB3F113
:1005A000C07F00D1012001E000E000BF34E08B6992
:1005B000B3F5005F1AD132B1012A07D0022A03D065
:1005C000032A11D10AE000BF01200EE0CB6A03F03C
:1005D0008073B3F1807F00D1012006E0CB6AB3F1D4
:1005E000C07F00D1012000E000BF15E032B1012A38
:1005F00005D0022A04D0032A0CD103E000BF00BFBB
:10060000012008E0CB6A03F08073B3F1807F00D152
:10061000012000E000BF00BF7047704710B54FF4E5
:10062000807000F0A3F901200149087010BD00009E
:100630000100002072B600BFFEE70000F8B50446D6
:10064000002000908C4800684FF41651B0FBF1F781
:10065000A56D2E6894F85C1008208840304098B151
:100660002068006800F0040070B12068006820F085
:1006700004002168086094F85C1008208840A86095
:10068000606D40F00100606594F85C1001208840C6
:10069000304068B12068406900F0800040B194F8B3
:1006A0005C1001208840A860606D40F00200606529
:1006B00094F85C1004208840304068B120680068DD
:1006C00000F0020040B194F85C1004208840A8605B
:1006D000606D40F00400606594F85C101020884064
:1006E000304078B32068006800F0080050B394F8F8
:1006F0005C1010208840A8602068006800F480200A
:1007000080B12068006800F4002028B9206CC8B1CE
:100710002046216C884715E0A06C98B12046A16C5A
:1007200088470FE02068006800F4807028B92068CE
:10073000006820F0080021680860206C10B1204695
:10074000216C884794F85C102020884030400028B5
:1007500065D02068006800F0100000285FD094F891
:100760005C1020208840A86094F83500052828D126
:100770002068006820F01600216808602068406941
:1007800020F0800021684861206C08B9A06C28B175
:100790002068006820F008002168086094F85C1068
:1007A0003F208840A860012084F8350000BF002069
:1007B00084F8340000BF206D10B12046216D8847B9
:1007C000F8BD2068006800F4802080B120680068CF
:1007D00000F4002028B9606C10B12046616C884795
:1007E0001DE0E06BD8B12046E16B884717E0206838
:1007F000006800F4807068B92068006820F010007C
:1008000021680860012084F8350000BF002084F8CA
:10081000340000BFE06B10B12046E16B8847606D8B
:1008200038B3606D00F00100F0B1052084F83500A8
:100830002068006820F001002168086000BF00986F
:10084000401C0090B84200D905E02068006800F024
:1008500001000028F3D100BF012084F8350000BF5B
:10086000002084F8340000BFE06C10B12046E16C39
:10087000884700BFA4E70000140000202DE9F041E4
:100880000446002500F082F9074614B90120BDE8AE
:10089000F081606A00B100BF022084F8350000BF1B
:1008A000002084F8340000BF2068006820F00100B8
:1008B000216808600AE000F069F9C01B052805D925
:1008C00020206065032084F83500E0E72068006898
:1008D00000F001000028EED120680568214805409D
:1008E000D4E901010843E1680843216908436169CB
:1008F0000843A1690843E1690843216A08430543A5
:10090000606A042803D1D4E90B0108430543206839
:1009100005602068456925F00705606A0543606A3F
:1009200004280DD1A06A0543E06A48B12046FFF7CC
:100930001FFE28B140206065012084F83500A6E73D
:10094000206845612046FFF7F9FD064694F85C10E3
:100950003F208840B06000206065012084F83500A9
:10096000002094E73F8010F07047000010B5044667
:1009700004480068204020B1024804602046FFF788
:10098000F3FF10BD143C0140F8B502460B460025AC
:10099000002400200021D1E0012606FA01F51E689E
:1009A00006EA0504AC4274D11E7906F00306012E56
:1009B00004D01E7906F00306022E13D190684F0072
:1009C0000326BE40B0434F00DE68BE403043906017
:1009D000506801268E40B0431E79C6F300168E4043
:1009E000304350601E7906F00306032E09D0D0680C
:1009F0004F000326BE40B0434F009E68BE403043C8
:100A0000D0601E7906F00306022E13D1CF0802F142
:100A1000200656F827004E07F70E0F26BE40B043BB
:100A20004F07FF0E1E69BE403043CF0802F120067B
:100A300046F8270010684F000326BE40B0431E79D9
:100A400006F003064F00BE40304310605E6806F4B7
:100A50004036002E71D000BF00260096394E366811
:100A600046F48046374F3E603E46366806F4804680
:100A7000009600BF00BF344E8F0856F827008E073F
:100A8000370F0F26BE40B043304EB24202D100268F
:100A90001FE052E02E4EB24201D1012619E02D4E48
:100AA000B24201D1022614E02B4EB24201D10326FC
:100AB0000FE02A4EB24201D104260AE0284EB2428B
:100AC00001D1052605E0274EB24201D1062600E0FD
:100AD00007268F073F0FBE4030431B4E8F0846F856
:100AE0002700214E3068A0435E6806F4801606B1E8
:100AF00020431D4E3060361D3068A0435E6806F40A
:100B0000001606B12043184E361D3060164E361FB3
:100B10003068A0435E6806F4003606B12043124EEA
:100B2000361F3060361F3068A0435E6806F480369A
:100B300006B120430C4E083E3060491C1029FFF4DA
:100B40002BAFF8BD44380240083801400000024095
:100B50000004024000080240000C02400010024065
:100B60000014024000180240083C014010B54269E0
:100B700021EA020302EA010443EA0443836110BD4F
:100B80000AB1816101E00B0483617047014800688C
:100B9000704700000800002070B504460CB9012021
:100BA00070BD94F83D0028B9002084F83C00204630
:100BB00000F0EAFB242084F83D002068006820F063
:100BC0000100216808602068006840F40040216846
:100BD00008602068006820F400402168086000F088
:100BE000D9FD05465C496068884206D85B48854265
:100BF00001D2012007E0002005E05948854201D2DA
:100C0000012000E00020012800D1C9E75548B5FBCC
:100C1000F0F62068406820F03F00304321684860CB
:100C20004D496068884201D8701C07E04FF4967007
:100C300070434FF47A71B0FBF1F0401C2168096AEF
:100C400021F03F01084321680862434960688842F7
:100C500014D8681E61684900B0FBF1F0401CC0F375
:100C60000B00042801D204203DE0681E61684900A1
:100C7000B0FBF1F0401CC0F30B0034E0A06838B9C1
:100C8000681E616801EB4101B0FBF1F0401C0AE015
:100C9000681E616801EBC10202EB0111B0FBF1F0CB
:100CA000401C40F48040C0F30B0008B901201AE05A
:100CB000A06848B9681E616801EB4101B0FBF1F022
:100CC000401CC0F30B000CE0681E616801EBC10220
:100CD00002EB0111B0FBF1F0401CC0F30B0040F43B
:100CE000804040F400402168C9694CF6FF7291438E
:100CF00008432168C861D4E90701084321680968ED
:100D000021F0C001084321680860D4E903100843BA
:100D10002168896848F2FF3291430843216888605E
:100D2000D4E9050108432168C96821F0FF0108439F
:100D30002168C8602068006840F0010021680860F0
:100D400000202064202084F83D000020206384F8E7
:100D50003E0000BF24E70000A086010080841E0042
:100D600000093D0040420F002DE9F84F04460F46B0
:100D700090461E46FFF70AFF05464FF0000994F81B
:100D80003D0020287ED11923012263492046009589
:100D900001F0E6FB10B10220BDE8F88F00BF94F827
:100DA0003C00012801D10220F6E7012084F83C0034
:100DB00000BF2068006800F0010028B920680068C2
:100DC00040F00100216808602068006820F400609D
:100DD00021680860242084F83D00002020644F48EA
:100DE000E06200BF2068006840F4807021680860FD
:100DF000334600224FF001112046009501F0B0FB70
:100E000058B12068006800F48070B0F5807F02D18E
:100E10004FF4007020640320BEE707F0FE00216855
:100E20000861FFF7B3FE054620684069C0F3400A39
:100E300020684069C0F3802B10E0FFF7A7FE401B3D
:100E4000B04200D816B9A02084F83D00206840695F
:100E5000C0F3400A20684069C0F3802B94F83D003D
:100E6000A02805D0BAF1000F02D1BBF1000FE4D0E9
:100E7000202084F83D0020684069C0F3400028B37A
:100E8000206800E045E0006840F4007021680860D8
:100E900000BF0020009020684069009020688069B1
:100EA000009000BF00BF192301221B492046009576
:100EB00001F056FB08B101206EE7202084F83D00C8
:100EC00000BF002084F83C0000BF65E72068006890
:100ED00040F40070216808606FF480602168486108
:100EE000192301220C492046009501F039FB08B175
:100EF000012051E709F10109C145FFF473AF20203A
:100F000084F83D0000BF002084F83C0000BF0120B1
:100F100042E7022040E70000020010000000FFFF4F
:100F20002DE9F8430446894617469846089EFFF780
:100F30002DFE054694F83D0020287DD1192301227D
:100F4000B2492046009501F00BFB10B10220BDE82C
:100F5000F88300BF94F83C00012801D10220F6E795
:100F6000012084F83C0000BF2068006800F0010008
:100F700028B92068006840F00100216808602068F6
:100F8000006820F4006021680860222084F83D0099
:100F9000102084F83E00002020646762A4F82A80B4
:100FA000608D20859A48E0622B46324649462046AD
:100FB00001F0ACF908B10120C9E7208D88B900BF64
:100FC00000200090206840690090206880690090AF
:100FD00000BF00BF2068006840F40070216808600E
:100FE00047E0208D012817D12068006820F4806038
:100FF0002168086000BF00200090206840690090D0
:1010000020688069009000BF00BF2068006840F43D
:101010000070216808602CE0208D022818D120681B
:10102000006820F48060216808602068006840F44F
:1010300000602168086000E0E6E000BF002000904A
:1010400020684069009020688069009000BF10E02F
:101050002068006840F480602168086000BF0020BC
:10106000009020684069009020688069009000BF6F
:1010700000BFBAE0208D03287ED8208D012815D12D
:101080002A463146204601F010FB08B101205EE7F8
:1010900020680069616A0870606A401C6062208D87
:1010A000401E2085608D401E60859EE0208D0228B8
:1010B0002AD13346002257492046009501F050FAC4
:1010C00008B1012043E72068006840F400702168FF
:1010D000086020680069616A0870606A401C60628C
:1010E000208D401E2085608D401E6085206800692F
:1010F000616A0870606A401C6062208D401E208515
:10110000608D401E608570E03346002241492046D4
:10111000009501F025FA08B1012018E72068006861
:1011200020F480602168086020680069616A0870A6
:10113000606A401C6062208D401E2085608D401ECC
:1011400060853346002233492046009501F008FAB5
:1011500008B10120FBE62068006840F400702168B7
:10116000086020680069616A0870606A401C6062FB
:10117000208D401E208500E010E0608D401E6085BF
:1011800020680069616A0870606A401C6062208D96
:10119000401E2085608D401E608526E02A4631462F
:1011A000204601F082FA08B10120D0E620680069EB
:1011B000616A0870606A401C6062208D401E208554
:1011C000608D401E608520684069C0F3800060B17A
:1011D00020680069616A0870606A401C6062208D46
:1011E000401E2085608D401E6085208D00287FF484
:1011F00041AF202084F83D00002084F83E0000BF6D
:1012000084F83C0000BFA2E60220A0E60200100025
:101210000000FFFF040001002DE9F8430446894661
:1012200016461F46DDF82080FFF7B0FC054694F80F
:101230003D0020287ED119230122514920460095E6
:1012400001F08EF910B10220BDE8F88300BF94F8D8
:101250003C00012801D10220F6E7012084F83C007F
:1012600000BF2068006800F0010028B9206800680D
:1012700040F00100216808602068006820F40060E8
:1012800021680860212084F83D00102084F83E0089
:101290000020206466626785608D20853948E062A1
:1012A0002B4642464946204601F0CCF808B10120C1
:1012B000CAE700BF002000902068406900902068C5
:1012C0008069009000BF00BF44E02A4641462046A6
:1012D00001F02BFA50B1206C042805D12068006879
:1012E00040F40070216808600120ADE7606A007872
:1012F00021680861606A401C6062608D401E6085E4
:10130000208D401E208520684069C0F3800070B1A8
:10131000208D60B1606A007821680861606A401CB5
:101320006062608D401E6085208D401E20852A46AB
:10133000414600E022E0204601F0E4F850B1206C84
:10134000042805D12068006840F400702168086016
:10135000012079E7208D0028B7D12068006840F48B
:10136000007021680860202084F83D00002084F887
:101370003E0000BF84F83C0000BF65E7022063E741
:10138000020010000000FFFF10B586B004461421D3
:1013900001A8FFF732F82949206888424CD100BFE4
:1013A000002000902648006840F0020024490860B0
:1013B0000846006800F00200009000BF00BF4FF434
:1013C00040700190122002900120039003200490AD
:1013D0000420059001A91B48FFF7D6FA00BF0020A2
:1013E000009017481030006840F400101449103184
:1013F00008600846006800F40010009000BF00BFBD
:101400001148124908604005486000210F4881607A
:10141000C1604FF480610161002141618161C1615E
:1014200001624162FFF72AFA08B1FFF703F900BF32
:101430000648A063846300BF06B010BD005400409E
:1014400030380240000402401060024008010020D1
:101450000348006803490978084401490860704757
:10146000080000201000002010B50D48006840F46E
:1014700000700B4908600846006840F4806008600E
:101480000846006840F480700860032000F0A6F869
:10149000002000F007F800F02BF8002010BD00003D
:1014A000003C024070B504460E4800784FF47A7153
:1014B000B1FBF0F00C490968B1FBF0F5284600F0EB
:1014C00089FC08B1012070BD102C07D200222146F2
:1014D000501E00F045F80548046001E00120F2E7E5
:1014E0000020F0E710000020140000200C00002075
:1014F00008B500BF002000901048006840F480400C
:101500000E4908600846006800F48040009000BF63
:1015100000BF00BF00200090081F006840F080500E
:10152000091F08600846006800F08050009000BF66
:1015300000BF072000F052F808BD00004438024008
:1015400001460846002809DB00F01F0301229A40EB
:1015500043099B0003F1E023C3F8002100BF70475B
:101560002DE9F05F80460D461646002701F054FE37
:10157000074639462A46334601F00700C0F1070AFC
:10158000BAF1040F02D94FF0040A01E0C0F1070AD2
:10159000D14600F1040ABAF1070F02D24FF0000A57
:1015A00001E0A0F1030AD4464FF0010A0AFA09FA51
:1015B000AAF1010A0AEA020A0AFA0CFA4FF0010B30
:1015C0000BFA0CFBABF1010B0BEA030B4AEA0B0421
:1015D0002146404601F028FEBDE8F09F00BF00F024
:1015E0000702064B19684FF6FF031940044B0B43E3
:1015F00043EA0221014B196000BF70470CED00E087
:101600000000FA0570B504460D460CB9012070BD06
:101610005848006800F00F00A84209D255490D70E3
:101620000846006800F00F00A84201D00120EEE754
:10163000207800F0020002281DD1207800F004007C
:10164000042805D14C48006840F4E0504A4908603D
:10165000207800F00800082805D14748006840F4C9
:101660006040454908604448006820F0F000A168E7
:10167000084341490860207800F00100A8B3606881
:10168000012807D13C4808380068C0F34040B8B989
:101690000120BCE76068022802D06068032807D1F7
:1016A000354808380068C0F3406048B90120AEE70B
:1016B000314808380068C0F3400008B90120A6E7A7
:1016C0002D48006820F00300616808432A4908603B
:1016D000FFF75CFA064609E0FFF758FA801B41F273
:1016E0008831884202D9032091E707E02248006848
:1016F00000F00C006168B0EB810FEDD11D4800686F
:1017000000F00F00A84209D91A490D700846006878
:1017100000F00F00A84201D0012078E7207800F007
:101720000400042807D11448006820F4E050E16860
:10173000084311490860207800F00800082808D103
:101740000D48006820F46040216940EAC1000A4960
:10175000086000F03FF808490968C1F30311074A1F
:10176000515CC8400649086006480068FFF79AFEC9
:1017700000204CE7003C02400838024002350008D7
:10178000140000200C000020014800687047000091
:101790001400002000B5FFF7F7FF04490968C1F302
:1017A0008221034A515CC84000BD00000838024055
:1017B0001235000800B5FFF7E7FF04490968C1F3D7
:1017C0004231034A515CC84000BD00000838024065
:1017D000123500082DE9F047002400250026A14617
:1017E000A2463F48006800F00C0030B1042807D042
:1017F000082808D00C286BD138E0DFF8E8A06AE0B0
:10180000DFF8E4A067E03648001F006800F03F04FE
:101810003348001F006800F4800078B13248304936
:10182000091F0968C1F38811A0FB01700146224617
:1018300000233846FEF736FD05460DE029482849C5
:10184000091F0968C1F38811A0FB0171224600231A
:101850003846FEF727FD05462148001F0068C0F303
:101860000140401C4600B5FBF6FA34E01C48001F5E
:10187000006800F03F041A48001F006800F4800070
:1018800078B119481649091F0968C1F38811A0FBEE
:1018900001700146224600233846FEF703FD054647
:1018A0000EE010480E49091F0968C1F38811A0FB1A
:1018B00001700146224600233846FEF7F3FC054638
:1018C0000748001F0068C0F30279B5FBF9FA02E08F
:1018D000DFF810A000BF00BF5046BDE8F087000051
:1018E000083802400024F40000127A00F8B50446DB
:1018F0000CB90120F8BD207800F0010000286FD05D
:10190000FE48006800F00C0004281BD0FB4800686B
:1019100000F00C00082807D1F848001F006800F408
:101920008000B0F5800F0DD0F448006800F00C0086
:101930000C2813D1F148001F006800F48000B0F5B6
:10194000800F0BD1ED4808380068C0F340400028F4
:1019500059D06068002856D10120CBE700BF6068ED
:10196000B0F5803F08D1E5480838006840F4803081
:10197000E249083908601EE06068B0F5A02F0DD17B
:10198000DE480838006840F48020DC4908390860E7
:101990000846006840F4803008600CE0D7480838FA
:1019A000006820F48030D54908390860084600688E
:1019B00020F48020086000BF606890B1FFF7E6F86F
:1019C000054606E0FFF7E2F8401B642801D9032032
:1019D00090E7CA4808380068C0F340400028F1D0BA
:1019E00011E0FFF7D3F8054606E0FFF7CFF8401BFC
:1019F000642801D903207DE7C04808380068C0F397
:101A000040400028F1D1207800F0020002286BD17C
:101A1000BA48006800F00C00B8B1B848006800F09F
:101A20000C00082805D1B548001F006800F48000AC
:101A300058B1B248006800F00C000C281CD1AF4827
:101A4000001F006800F48000B0B9AC480838006896
:101A5000C0F3400020B1E068012801D0012049E72F
:101A6000A6480838006820F0F800216940EAC10063
:101A7000A2490839086037E0E06800B30120A049B6
:101A80000860FFF783F8054606E0FFF77FF8401B84
:101A9000022801D903202DE7984808380068C0F3D0
:101AA00040000028F1D095480838006820F0F80080
:101AB000216940EAC10091490839086014E000201A
:101AC0008F490860FFF762F8054606E0FFF75EF809
:101AD000401B022801D903200CE788480838006819
:101AE000C0F340000028F1D1207800F00800082859
:101AF0002CD16069A8B1012082490860FFF746F83F
:101B0000054606E0FFF742F8401B022801D90320F2
:101B1000F0E67A486C300068C0F340000028F1D04D
:101B200014E0002077490860FFF730F8054606E02A
:101B3000FFF72CF8401B022801D90320DAE66F4892
:101B40006C300068C0F340000028F1D1207800F02C
:101B50000400042870D1002768483830006800F07D
:101B6000805090B900BF0020009064483830006871
:101B700040F080506149383108600846006800F044
:101B80008050009000BF00BF01275F48006800F44C
:101B90008070B0B95C48006840F480705A490860B1
:101BA000FEF7F4FF054606E0FEF7F0FF401B0228B3
:101BB00001D903209EE65448006800F48070002894
:101BC000F2D000BFA068012808D14C4868300068F6
:101BD00040F001004949683108601DE0A06805280F
:101BE0000DD146486830006840F004004349683130
:101BF00008600846006840F0010008600CE03F48BB
:101C00006830006820F001003C49683108600846EF
:101C1000006820F00400086000BFA068A8B1FEF7CB
:101C2000B5FF054609E0FEF7B1FF401B41F28831E0
:101C3000884202D903205DE626E03048683000681B
:101C4000C0F340000028EED013E0FEF79FFF0546EA
:101C500008E0FEF79BFF401B41F28831884201D922
:101C6000032047E6254868300068C0F3400000289C
:101C7000EFD1012F07D121483830006820F0805083
:101C80001E493831086000BFA069002851D01B48A8
:101C9000006800F00C00082861D0A069022849D132
:101CA000002017490866FEF771FF054606E0FEF7BB
:101CB0006DFF401B022801D903201BE60F4808389E
:101CC0000068C0F340600028F1D1D4E9070108435F
:101CD000616A40EA81110122A06AC2EB500041EA28
:101CE00000412C20005D41EA00613020005D41EAA6
:101CF00000700249091F0860012007E0083802400F
:101D000000004742800E4742007000402F4908669D
:101D1000FEF73CFF054606E0FEF738FF401B0228B1
:101D200001D90320E6E52A480068C0F34060002896
:101D3000F2D048E0002025490866FEF727FF054657
:101D400006E0FEF723FF401B022801D90320D1E55E
:101D50001F480068C0F340600028F2D133E0A0695A
:101D6000012800D1C6E51A48001D0668A0690128AF
:101D700027D006F48001E069814222D106F03F01BC
:101D8000206A81421DD147F6C0703040616AB0EBD5
:101D9000811F16D106F440310122A06AC2EB500027
:101DA000B1EB004F0DD106F070612C20005DB1EB5E
:101DB000006F06D106F0E0413020005DB1EB007FFE
:101DC00001D0012096E5002094E500000000474284
:101DD0000038024070B504462546681EB0F1807F89
:101DE00001D301200FE0681E4FF0E02148610F2170
:101DF0004FF0FF3001F018FA00204FF0E021886129
:101E000007200861002070BD30B502460B4600BFB8
:101E100092F83C00012801D1022030BD012082F857
:101E20003C0000BF022082F83D0010684468106842
:101E3000816824F070041868044310684460184DE9
:101E40001068A8421BD01068B0F1804F17D0154D14
:101E50001068A84213D0144D1068A8420FD0134D3B
:101E60001068A8420BD0124D1068A84207D0114D3F
:101E70001068A84203D0104D1068A84205D121F087
:101E800080015868014310688160012082F83D009C
:101E900000BF002082F83C0000BF00BFBDE700008B
:101EA000000001400004004000080040000C004019
:101EB00000040140004001400018004010B50446F5
:101EC0000CB9012010BD94F83D0028B9002084F819
:101ED0003C00204600F026F8022084F83D00211D39
:101EE000206800F08FFF012084F8460000BF84F8CE
:101EF0003E0001213F200155402001554120015560
:101F000000BF00BF012084F8420043200155442057
:101F100001554520015500BF012084F83D000020F7
:101F2000D0E7000008B50168B1F1804F0FD100BFC4
:101F3000002100910649096841F00101044A11603D
:101F40001146096801F00101009100BF00BF08BD02
:101F500040380240014691F83D00012801D001209F
:101F60007047022081F83D001A4B086898421BD048
:101F70000868B0F1804F17D0174B0868984213D00B
:101F8000164B086898420FD0154B086898420BD042
:101F9000144B0868984207D0134B0868984203D046
:101FA000124B086898420CD10868806800F007025C
:101FB000062A0CD00868006840F001000B68186021
:101FC00005E00868006840F001000B681860002018
:101FD000C6E7000000000140000400400008004087
:101FE000000C004000040140004001400018004087
:101FF0002DE9F04104460D46002700BF94F83C004F
:10200000012802D10220BDE8F081012084F83C00C3
:1020100000BF022084F83D002068866826F077061D
:1020200026F47F46206886602868502833D00CDC70
:10203000202850D004DC00284BD0102851D149E092
:10204000302849D040284CD139E060282DD0702864
:1020500007D0B0F5805F03D0B0F5005F41D10DE04F
:1020600041E0D5E902136A68206800F037FF206874
:10207000866846F077062068866034E0D5E902136A
:102080006A68206800F02AFF2068806840F4804079
:102090002168886027E0EA686968206800F032FFFC
:1020A0005021206800F025FF1DE0EA68696820687B
:1020B00000F03BFF6021206800F01BFF13E0EA689E
:1020C0006968206800F01EFF4021206800F011FFC1
:1020D00009E000BF00BF00BF2968206800F009FFC9
:1020E00001E0012700BF00BF012084F83D0000BFD0
:1020F000002084F83C0000BF384684E710B5044651
:102100000CB9012010BDA06900B100E000BF94F837
:102110003D0028B9002084F83C00204600F028F853
:10212000242084F83D002068C06820F40050216815
:10213000C860204600F00EFF2068006920F490403F
:10214000216808612068406920F02A002168486100
:102150002068C06840F400502168C86000202064F6
:10216000202084F83D0084F83E000020CAE70000EB
:1021700010B586B00446142101A8FEF73EF91B49AC
:10218000206888422FD100BF0020009018480068C6
:1021900040F40030164908600846006800F400303A
:1021A000009000BF00BF00BF002000901048103812
:1021B000006840F001000E491039086008460068C8
:1021C00000F00100009000BF00BF0C200190022031
:1021D000029000200390032004900720059001A99D
:1021E0000448FEF7D1FB06B010BD000000440040DB
:1021F00040380240000002402DE9F84F04460E46E8
:10220000174699464FF0000A94F83D0020285AD10D
:1022100006B117B90120BDE8F88F00BF94F83C0063
:10222000012801D10220F6E7012084F83C0000BF1C
:1022300000202064212084F83D00FEF7A7FC8246A0
:10224000A784E784A068B0F5805F04D1206910B945
:102250000025B04602E035464FF0000800BF0020E0
:1022600084F83C0000BF1BE053460022802120463A
:10227000CDF8009000F084FF08B10320CBE745B90A
:10228000B8F80000C0F308002168486008F10208AF
:1022900003E02878216848606D1CE08C401EE084D3
:1022A000E08C0028E0D15346002240212046CDF8A2
:1022B000009000F065FF08B10320ACE7202084F80F
:1022C0003D000020A7E70220A5E700BFFEE701468A
:1022D00008684069C0F38020B0B16FF480600A687C
:1022E000506100200863202081F83D00002081F823
:1022F0003E00086C40F00400086400BF002081F834
:102300003C0000BF012070470020FCE72DE9F843A6
:1023100004460D4690461E46E76A2068006840F471
:10232000806021680860082F04D0012F02D017F5C3
:10233000803F06D12068006840F480702168086002
:1023400008E0206B112805D12068006840F48070F7
:1023500021680860434600224FF001112046009694
:1023600000F0FEF860B12068006800F48070B0F5FD
:10237000807F02D14FF4007020640320BDE8F88311
:102380002069B0F5804F05D1E8B240F00100216826
:10239000086149E005F44070F02141EAE01021684D
:1023A0000861334642462649204600F01CF908B130
:1023B0000120E3E7E8B2216808613346424620493C
:1023C000891F204600F00FF908B10120D6E700BFB1
:1023D000002000902068406900902068806900908B
:1023E00000BF00BF2068006840F48070216808606A
:1023F000434600224FF001112046009600F0B0F84D
:1024000058B12068006800F48070B0F5807F02D178
:102410004FF4007020640320B0E705F44070F12110
:1024200041EAE01021680861334642460449891FA9
:10243000204600F0D8F808B101209FE700209DE772
:10244000080001002DE9F84304460D46174698465A
:10245000E66A082E04D0012E02D016F5803F06D180
:102460002068006840F480702168086008E0206BF4
:10247000122805D12068006840F480702168086047
:102480003B4600224FF001112046CDF8008000F0BD
:1024900067F860B12068006800F48070B0F5807F54
:1024A00002D14FF4007020640320BDE8F883206956
:1024B000B0F5804F04D105F0FE002168086112E0FC
:1024C00005F44070F02141EAE010216808614346BC
:1024D0003A460B49204600F086F808B10120E4E7AF
:1024E000E8B22168086143463A460549891F2046FB
:1024F00000F079F808B10120D7E70020D5E7000007
:102500000800010070B504460D46164620E020463E
:10251000FFF7DDFE08B1012070BD681CC0B1FEF7F9
:1025200035FB801BA84200D895B9002020632020ED
:1025300084F83D00002084F83E00206C40F020002C
:10254000206400BF002084F83C0000BF0120E3E7C6
:1025500020684069C0F380000028D8D00020DBE765
:102560002DE9F04104460D4617461E46DDF8188059
:102570001CE0701CD0B1FEF709FBA0EB0800B042D4
:1025800000D89EB900202063202084F83D00002060
:1025900084F83E00206C40F02000206400BF002042
:1025A00084F83C0000BF0120BDE8F081C5F307407E
:1025B00001280AD120684069A9B20840A9B288421E
:1025C00001D101200BE0002009E020688069A9B258
:1025D0000840A9B2884201D1012000E00020B842A1
:1025E000C7D00020E0E72DE9F04104460D4616462D
:1025F0001F463DE020684069C0F38020E8B12068B4
:10260000006840F40070216808606FF48060216801
:10261000486100202063202084F83D00002084F8D9
:102620003E00206C40F00400206400BF002084F8CD
:102630003C0000BF0120BDE8F081701CC0B1FEF776
:10264000A5FAC01BB04200D896B900202063202014
:1026500084F83D00002084F83E00206C40F020000B
:10266000206400BF002084F83C0000BF0120E2E7A6
:10267000C5F3074001280AD120684069A9B2084083
:10268000A9B2884201D101200BE0002009E02068B6
:102690008069A9B20840A9B2884201D1012000E0B6
:1026A00000200028A6D00020C5E770B504460D46DE
:1026B000164632E020684069C0F30010A0B16FF008
:1026C00010002168486100202063202084F83D002C
:1026D000002084F83E00206C206400BF002084F8B5
:1026E0003C0000BF012070BDFEF750FA801BA842DD
:1026F00000D895B900202063202084F83D000020F8
:1027000084F83E00206C40F02000206400BF0020D0
:1027100084F83C0000BF0120E5E720684069C0F371
:1027200080100028C6D00020DDE770B504460D46B5
:10273000164620E02046FFF7CAFD08B1012070BD13
:10274000681CC0B1FEF722FA801BA84200D895B9D8
:1027500000202063202084F83D00002084F83E0003
:10276000206C40F02000206400BF002084F83C0072
:1027700000BF0120E3E720684069C0F3C0100028D3
:10278000D8D00020DBE700002DE9FF4104460D46CC
:1027900016461F4645F0D000207021784FF47A731A
:1027A0000A221E48FEF7E0FA18B1022004B0BDE884
:1027B000F0811BA0006802904FF47A70009021789D
:1027C000012302AA1548FEF727FD08B10120EDE715
:1027D0004FF47A7000902178012303AA0F48FEF786
:1027E0009FFB08B10120E1E79DF80C00682801D0AB
:1027F0000320DBE76B208DF8040000208DF8050036
:102800004FF47A7000902178022301AA0348FEF762
:1028100003FD08B10120C9E70020C7E7B40000208C
:102820007500000030B587B0044631A00068029002
:102830004FF47A7000902178012302AA2D48FEF708
:10284000EBFC10B1012007B030BD4FF47A7000905E
:1028500021780E2303AA2748FEF762FB08B1012066
:10286000F1E79DF80D009DF80C1040EA012000B240
:10287000A0819DF80F009DF80E1040EA012000B2E3
:10288000E0819DF811009DF8101040EA012000B28F
:1028900020829DF813009DF8121040EA012005B235
:1028A00000EE105AF8EEC00A9FED131A80EE810A6E
:1028B000DFED120A30EE200A84ED060A9DF81500BD
:1028C0009DF8141040EA012000B260829DF81700C4
:1028D0009DF8161040EA012000B2A0829DF8190070
:1028E0009DF8181040EA012000B2E0820020AAE71B
:1028F0003B000000B40000200000AA43B81E1242B2
:102900003EB504460D4611A00068019000202870D5
:102910004FF47A7000902178012301AA0C48FEF749
:102920007BFC08B101203EBD4FF47A700090217805
:10293000012302AA0648FEF7F3FA08B10120F2E7E4
:102940009DF8080028700020EDE700003A00000024
:10295000B40000207FB504460D462BA0006802900D
:102960004FF47A7000902178012302AA2748FEF7DD
:1029700053FC10B1012004B070BD4FF47A70009088
:102980002178012303AA2148FEF7CAFA08B10120E1
:10299000F1E79DF80C0000F0E70040EAC500C0B286
:1029A00003901C208DF804009DF80C008DF80500A4
:1029B0004FF47A7000902178022301AA1348FEF7A1
:1029C0002BFC08B10120D6E735B1012D09D0022D2D
:1029D0000CD0032D14D10EE09FED0D0A84ED020AF8
:1029E0000FE09FED0C0A84ED020A0AE09FED0A0A4F
:1029F00084ED020A05E09FED090A84ED020A00BF9A
:102A000000BF00BF0020B6E71C000000B40000209B
:102A10000000803800000039000080390000003AD2
:102A20007CB504460D4619208DF804008DF805503C
:102A30004FF47A7000902178022301AA0348FEF730
:102A4000EBFB08B101207CBD0020FCE7B4000020B6
:102A50007FB504460D4629A0006802904FF47A70B5
:102A600000902178012302AA2548FEF7D5FB10B17A
:102A7000012004B070BD4FF47A70009021780123DA
:102A800003AA1F48FEF74CFA08B10120F1E706F04F
:102A9000E70040EAC500C6B21B208DF804008DF89F
:102AA00005604FF47A7000902178022301AA14483F
:102AB000FEF7B2FB08B10120DBE735B1012D09D0EB
:102AC000022D0CD0032D14D10EE09FED0E0A84EDE3
:102AD000010A0FE09FED0C0A84ED010A0AE09FED68
:102AE0000B0A84ED010A05E09FED090A84ED010A55
:102AF00000BF00BF00BF0020BBE700001B000000BC
:102B0000B40000202D23FA3B2D237A3C90C1F93CE0
:102B100090C1793D08B500BF002000900A480068C8
:102B200040F40010084908600846006800F40010EE
:102B3000009000BF00BF002211460B20FEF710FDE1
:102B40000B20FEF7FDFC08BD3038024000B587B011
:102B5000142102A8FDF751FC00BF00200190364867
:102B6000006840F00400344908600846006800F03E
:102B70000400019000BF00BF00BF00200190084684
:102B8000006840F0800008600846006800F080009F
:102B9000019000BF00BF00BF002001900846006800
:102BA00040F0010008600846006800F00100019054
:102BB00000BF00BF00BF002001900846006840F041
:102BC000020008600846006800F00200019000BFA3
:102BD00000BF002220211948FDF7D2FF4FF400501A
:102BE00002904FF4041003900020049002A91448AE
:102BF000FDF7CAFE202002900120039000200490DF
:102C0000059002A90D48FDF7BFFE4FF480700290B9
:102C10004FF4881003900020049002A90748FDF7A4
:102C2000B3FE002211461720FEF79AFC1720FEF78C
:102C300087FC07B000BD00003038024000000240B1
:102C40000008024010B50B480B4908600B4848606B
:102C5000002109488160C1604FF480410161002179
:102C600041618161C1610162FDF796FF08B1FDF725
:102C7000E1FC10BD00540040B4000020801A0600A2
:102C800000B587B000200390049005900690019055
:102C900002904FF0804013490860532048600021A3
:102CA00010488160491EC160002101618161FFF708
:102CB00005F908B1FDF7BEFC4FF48050039003A95D
:102CC0000848FFF795F908B1FDF7B4FC0020019022
:102CD000029001A90348FFF797F808B1FDF7AAFC95
:102CE00007B000BD6801002010B50B480B49086013
:102CF0004FF4E1304860002108488160C160016103
:102D00000C21416100218161C161FFF7F7F908B130
:102D1000FDF790FC10BD000000440040B001002011
:102D200000BFFEE700BFFEE77047704710B5FEF733
:102D30008FFB10BD00B593B0342106A8FDF75DFBF5
:102D4000142101A8FDF759FB00BF00200090264880
:102D5000006840F08050244908600846006800F090
:102D60008050009000BF00BF00BF002000901F48AF
:102D7000006820F4404040F480401C490860084648
:102D8000006800F44040009000BF00BF02200690A1
:102D90000120099010200A9002200C9000210D9132
:102DA00010210E914FF4A8710F910421109102216E
:102DB0001191129106A8FEF799FD08B1FDF73AFCB2
:102DC0000F20019002200290002003904FF48050C9
:102DD000049000200590022101A8FEF713FC08B121
:102DE000FDF728FC13B000BD4038024000700040E1
:102DF0000348006840F47000014908607047000013
:102E000088ED00E010B50268294B98420ED0B0F171
:102E1000804F0BD0274B984208D0274B984205D0C3
:102E2000264B984202D0264B984203D122F07002E2
:102E30004B681A431E4B984220D0B0F1804F1DD0F2
:102E40001C4B98421AD01C4B984217D01B4B9842EF
:102E500014D01B4B984211D01A4B98420ED01A4BEB
:102E600098420BD0194B984208D0194B984205D084
:102E7000184B984202D0184B984203D122F440726A
:102E8000CB681A4322F080034C6943EA04020260D3
:102E90008B68C3620B688362054B984202D0084B73
:102EA000984201D10B6903630123436110BD000007
:102EB000000001400004004000080040000C0040F9
:102EC000000401400040014000440140004801402E
:102ED00000180040001C00400020004030B50C46A7
:102EE000816821F47F4142EA03252543294381601B
:102EF00030BD0A46816821F0700142F00703194392
:102F00008160704730B50B461446026A056A25F0A9
:102F100001050562816921F0F00141EA041122F006
:102F20000A021A438161026230BD30B50B46144675
:102F3000056A25F0100505628169026A21F4704175
:102F400041EA043122F0A00242EA031281610262E6
:102F500030BD00002DE9F84F04462068006920F4D8
:102F60004050E1680843216808612169A06808436E
:102F700061690843E169084300902068C06849F22C
:102F80000C618843009908432168C8602068406943
:102F900020F44070A169084321684861764920689F
:102FA000884203D075492068884203D1FEF702FCAD
:102FB000814602E0FEF7EEFB8146E069B0F5004F86
:102FC0006CD102206168A0FB015003461920A9FBC7
:102FD000007001462A463846FDF764F96421B0FBCB
:102FE000F1F04FEA001A02206168A0FB01510B4684
:102FF0001920A9FB00712A463846FDF753F983468C
:1030000002206168A0FB015003461920A9FB007152
:103010002A463846FDF746F96421B0FBF1F000EB93
:10302000C00101EB0010ABEB8000322101EBC000CE
:103030006421B0FBF1F000F0F8000AEB400A022036
:103040006168A0FB015003461920A9FB00700146EE
:103050002A463846FDF726F9834602206168A0FB20
:10306000015003461920A9FB00712A463846FDF796
:1030700019F96421B0FBF1F000EBC00101EB001085
:10308000ABEB8000322101EBC0006421B0FBF1F01A
:1030900000F007005044216888606AE004206168FD
:1030A000A0FB015003461920A9FB007001462A46E7
:1030B0003846FDF7F7F8824604206168A0FB01500E
:1030C00003461920A9FB007001462A463846FDF741
:1030D000E9F86421B0FBF1F000EBC00101EB001056
:1030E000AAEB8000322101EB00106421B0FBF1F06B
:1030F00000F0F00A04206168A0FB0170034619206B
:10310000A9FB00513A462846FDF7CCF86421B0FBF4
:10311000F1F00AEB001A04206168A0FB01510B4694
:103120001920A9FB00712A463846FDF7BBF88346F3
:1031300004206168A0FB015003461920A9FB007020
:1031400001462A463846FDF7ADF86421B0FBF1F0A0
:1031500000EBC00101EB0010ABEB8000322101EB72
:1031600000106421B0FBF1F000F00F005044216822
:103170008860BDE8F88F0000001001400014014095
:103180002DE9F04104460D4617469846069E34E068
:10319000701C88B32EB1FDF7F9FCA0EB0800B0421B
:1031A0002BD900BF00BF21680C3151E8001F21F46A
:1031B000D07021680C3141E80002002AF3D100BF31
:1031C00000BF00BF2168143151E8001F21F0010049
:1031D0002168143141E80002002AF3D100BF202009
:1031E00084F83D0084F83E0000BF002084F83C00D5
:1031F00000BF0320BDE8F081FFE720680068284099
:10320000A84201D1012000E00020B842C0D0002037
:10321000F0E700BFFEE7000002480068C0F30220AC
:10322000704700000CED00E010B5002804DB0A0731
:10323000130E054A135406E00A07140E034A00F061
:103240000F031B1FD45410BD00E400E018ED00E094
:10325000FEF70AF9FFF76EFDFFF778FCFFF75AFC5F
:10326000FFF7F0FCFFF740FDFFF70AFD0023022205
:1032700019465648FFF788FA70B955A15D48FDF721
:1032800089F85C48FDF79AF884B2642322465949CC
:103290005948FEF7B1FF0DE058A15648FDF77AF8FE
:1032A0005448FDF78BF884B26423224651495248B2
:1032B000FEF7A2FF4F214548FFF7B2FB70B958A1B6
:1032C0004C48FDF767F84B48FDF778F884B2642363
:1032D000224648494848FEF78FFF0DE05BA145486C
:1032E000FDF758F84348FDF769F884B26423224695
:1032F00040494148FEF780FF02213448FFF72AFB8E
:1033000070B95DA13B48FDF745F83A48FDF756F81E
:1033100084B26423224637493748FEF76DFF0DE03B
:1033200055A13448FDF736F83248FDF747F884B226
:10333000642322462F493048FEF75EFF00212348D0
:10334000FFF786FB70B959A12A48FDF723F82948F1
:10335000FDF734F884B26423224626492648FEF756
:103360004BFF0DE051A12348FDF714F82148FDF76C
:1033700025F884B2642322461E491F48FEF73CFF0D
:103380005648FEF7E7FD1FE05548007801281BD19D
:1033900000205349087020215248FDF7E7FB002028
:1033A0004E490968486250490848FFF7A9FA4E4853
:1033B000007800F0010010B10448FFF733FA4748E5
:1033C0000068406A49490880DEE700009800002054
:1033D0004D5055363035303A20457869746F206E3F
:1033E0006120696E696369616C697A6163616F0A02
:1033F0000D00000018000020B00100204D5055368F
:103400003035303A2046616C6861206E6120696E0B
:10341000696369616C697A6163616F0A0D0000001C
:103420004D5055363035303A20457869746F206EEE
:103430006120636F6E66696775726163616F206496
:103440006F20726174650A0D000000004D50553602
:103450003035303A2046616C6861206E6120636FC0
:103460006E66696775726163616F20646F20726157
:1034700074650A0D000000004D5055363035303A65
:1034800020457869746F206E6120636F6E6669678E
:1034900075726163616F20646F206163656C657232
:1034A0006F6D6574726F0A0D000000004D50553647
:1034B0003035303A20457869746F206E6120636F33
:1034C0006E66696775726163616F20646F206769FA
:1034D000726F73636F70696F0A0D000068010020DE
:1034E0000100002000000240000000200200002037
:1034F0004FF04070E1EE100A70470006101600060B
:10350000101600000000000000000102030406077E
:103510000809000000000102030400003C35000817
:1035200000000020180000000002000854350008C8
:1035300018000020400800001C02000800000000E5
:10354000000000000000000010000000010000006A
:043550000024F4005F
:04000005080001C529
:00000001FF
